{
    "_format": "hh-sol-artifact-1",
    "contractName": "BDCContract",
    "sourceName": "contracts/BDCContract.sol",
    "abi": [
        {
            "inputs": [
                {
                    "internalType": "string",
                    "name": "customBaseURI_",
                    "type": "string"
                },
                {
                    "internalType": "uint256",
                    "name": "_maxDogs",
                    "type": "uint256"
                },
                {
                    "internalType": "uint256",
                    "name": "_whitelistMaxSupply",
                    "type": "uint256"
                }
            ],
            "stateMutability": "nonpayable",
            "type": "constructor"
        },
        {
            "inputs": [],
            "name": "ApprovalCallerNotOwnerNorApproved",
            "type": "error"
        },
        {
            "inputs": [],
            "name": "ApprovalQueryForNonexistentToken",
            "type": "error"
        },
        {
            "inputs": [],
            "name": "ApprovalToCurrentOwner",
            "type": "error"
        },
        {
            "inputs": [],
            "name": "ApproveToCaller",
            "type": "error"
        },
        {
            "inputs": [],
            "name": "BalanceQueryForZeroAddress",
            "type": "error"
        },
        {
            "inputs": [],
            "name": "MintToZeroAddress",
            "type": "error"
        },
        {
            "inputs": [],
            "name": "MintZeroQuantity",
            "type": "error"
        },
        {
            "inputs": [],
            "name": "OwnerQueryForNonexistentToken",
            "type": "error"
        },
        {
            "inputs": [],
            "name": "TransferCallerNotOwnerNorApproved",
            "type": "error"
        },
        {
            "inputs": [],
            "name": "TransferFromIncorrectOwner",
            "type": "error"
        },
        {
            "inputs": [],
            "name": "TransferToNonERC721ReceiverImplementer",
            "type": "error"
        },
        {
            "inputs": [],
            "name": "TransferToZeroAddress",
            "type": "error"
        },
        {
            "inputs": [],
            "name": "URIQueryForNonexistentToken",
            "type": "error"
        },
        {
            "anonymous": false,
            "inputs": [
                {
                    "indexed": true,
                    "internalType": "address",
                    "name": "owner",
                    "type": "address"
                },
                {
                    "indexed": true,
                    "internalType": "address",
                    "name": "approved",
                    "type": "address"
                },
                {
                    "indexed": true,
                    "internalType": "uint256",
                    "name": "tokenId",
                    "type": "uint256"
                }
            ],
            "name": "Approval",
            "type": "event"
        },
        {
            "anonymous": false,
            "inputs": [
                {
                    "indexed": true,
                    "internalType": "address",
                    "name": "owner",
                    "type": "address"
                },
                {
                    "indexed": true,
                    "internalType": "address",
                    "name": "operator",
                    "type": "address"
                },
                {
                    "indexed": false,
                    "internalType": "bool",
                    "name": "approved",
                    "type": "bool"
                }
            ],
            "name": "ApprovalForAll",
            "type": "event"
        },
        {
            "anonymous": false,
            "inputs": [
                {
                    "indexed": false,
                    "internalType": "address",
                    "name": "prevOwner",
                    "type": "address"
                },
                {
                    "indexed": false,
                    "internalType": "address",
                    "name": "newOwner",
                    "type": "address"
                }
            ],
            "name": "OwnerUpdated",
            "type": "event"
        },
        {
            "anonymous": false,
            "inputs": [
                {
                    "indexed": true,
                    "internalType": "address",
                    "name": "from",
                    "type": "address"
                },
                {
                    "indexed": true,
                    "internalType": "address",
                    "name": "to",
                    "type": "address"
                },
                {
                    "indexed": true,
                    "internalType": "uint256",
                    "name": "tokenId",
                    "type": "uint256"
                }
            ],
            "name": "Transfer",
            "type": "event"
        },
        {
            "inputs": [],
            "name": "PUBLIC_SALE_PRICE",
            "outputs": [
                {
                    "internalType": "uint256",
                    "name": "",
                    "type": "uint256"
                }
            ],
            "stateMutability": "view",
            "type": "function"
        },
        {
            "inputs": [
                {
                    "internalType": "address",
                    "name": "to",
                    "type": "address"
                },
                {
                    "internalType": "uint256",
                    "name": "tokenId",
                    "type": "uint256"
                }
            ],
            "name": "approve",
            "outputs": [],
            "stateMutability": "nonpayable",
            "type": "function"
        },
        {
            "inputs": [
                {
                    "internalType": "address",
                    "name": "owner",
                    "type": "address"
                }
            ],
            "name": "balanceOf",
            "outputs": [
                {
                    "internalType": "uint256",
                    "name": "",
                    "type": "uint256"
                }
            ],
            "stateMutability": "view",
            "type": "function"
        },
        {
            "inputs": [
                {
                    "internalType": "uint256",
                    "name": "tokenId",
                    "type": "uint256"
                }
            ],
            "name": "getApproved",
            "outputs": [
                {
                    "internalType": "address",
                    "name": "",
                    "type": "address"
                }
            ],
            "stateMutability": "view",
            "type": "function"
        },
        {
            "inputs": [],
            "name": "getBaseURI",
            "outputs": [
                {
                    "internalType": "string",
                    "name": "",
                    "type": "string"
                }
            ],
            "stateMutability": "view",
            "type": "function"
        },
        {
            "inputs": [
                {
                    "internalType": "address",
                    "name": "owner",
                    "type": "address"
                },
                {
                    "internalType": "address",
                    "name": "operator",
                    "type": "address"
                }
            ],
            "name": "isApprovedForAll",
            "outputs": [
                {
                    "internalType": "bool",
                    "name": "",
                    "type": "bool"
                }
            ],
            "stateMutability": "view",
            "type": "function"
        },
        {
            "inputs": [],
            "name": "maxDogs",
            "outputs": [
                {
                    "internalType": "uint256",
                    "name": "",
                    "type": "uint256"
                }
            ],
            "stateMutability": "view",
            "type": "function"
        },
        {
            "inputs": [
                {
                    "internalType": "address",
                    "name": "to",
                    "type": "address"
                },
                {
                    "internalType": "uint256",
                    "name": "quantity",
                    "type": "uint256"
                }
            ],
            "name": "mint",
            "outputs": [],
            "stateMutability": "payable",
            "type": "function"
        },
        {
            "inputs": [],
            "name": "name",
            "outputs": [
                {
                    "internalType": "string",
                    "name": "",
                    "type": "string"
                }
            ],
            "stateMutability": "view",
            "type": "function"
        },
        {
            "inputs": [],
            "name": "owner",
            "outputs": [
                {
                    "internalType": "address",
                    "name": "",
                    "type": "address"
                }
            ],
            "stateMutability": "view",
            "type": "function"
        },
        {
            "inputs": [
                {
                    "internalType": "uint256",
                    "name": "tokenId",
                    "type": "uint256"
                }
            ],
            "name": "ownerOf",
            "outputs": [
                {
                    "internalType": "address",
                    "name": "",
                    "type": "address"
                }
            ],
            "stateMutability": "view",
            "type": "function"
        },
        {
            "inputs": [],
            "name": "paused",
            "outputs": [
                {
                    "internalType": "bool",
                    "name": "",
                    "type": "bool"
                }
            ],
            "stateMutability": "view",
            "type": "function"
        },
        {
            "inputs": [
                {
                    "internalType": "address",
                    "name": "from",
                    "type": "address"
                },
                {
                    "internalType": "address",
                    "name": "to",
                    "type": "address"
                },
                {
                    "internalType": "uint256",
                    "name": "tokenId",
                    "type": "uint256"
                }
            ],
            "name": "safeTransferFrom",
            "outputs": [],
            "stateMutability": "nonpayable",
            "type": "function"
        },
        {
            "inputs": [
                {
                    "internalType": "address",
                    "name": "from",
                    "type": "address"
                },
                {
                    "internalType": "address",
                    "name": "to",
                    "type": "address"
                },
                {
                    "internalType": "uint256",
                    "name": "tokenId",
                    "type": "uint256"
                },
                {
                    "internalType": "bytes",
                    "name": "_data",
                    "type": "bytes"
                }
            ],
            "name": "safeTransferFrom",
            "outputs": [],
            "stateMutability": "nonpayable",
            "type": "function"
        },
        {
            "inputs": [
                {
                    "internalType": "address",
                    "name": "operator",
                    "type": "address"
                },
                {
                    "internalType": "bool",
                    "name": "approved",
                    "type": "bool"
                }
            ],
            "name": "setApprovalForAll",
            "outputs": [],
            "stateMutability": "nonpayable",
            "type": "function"
        },
        {
            "inputs": [
                {
                    "internalType": "string",
                    "name": "newBaseURI",
                    "type": "string"
                }
            ],
            "name": "setBaseURI",
            "outputs": [],
            "stateMutability": "nonpayable",
            "type": "function"
        },
        {
            "inputs": [
                {
                    "internalType": "address",
                    "name": "_newOwner",
                    "type": "address"
                }
            ],
            "name": "setOwner",
            "outputs": [],
            "stateMutability": "nonpayable",
            "type": "function"
        },
        {
            "inputs": [
                {
                    "internalType": "bool",
                    "name": "_paused",
                    "type": "bool"
                }
            ],
            "name": "setPaused",
            "outputs": [],
            "stateMutability": "nonpayable",
            "type": "function"
        },
        {
            "inputs": [
                {
                    "internalType": "bytes4",
                    "name": "interfaceId",
                    "type": "bytes4"
                }
            ],
            "name": "supportsInterface",
            "outputs": [
                {
                    "internalType": "bool",
                    "name": "",
                    "type": "bool"
                }
            ],
            "stateMutability": "view",
            "type": "function"
        },
        {
            "inputs": [],
            "name": "symbol",
            "outputs": [
                {
                    "internalType": "string",
                    "name": "",
                    "type": "string"
                }
            ],
            "stateMutability": "view",
            "type": "function"
        },
        {
            "inputs": [
                {
                    "internalType": "uint256",
                    "name": "tokenId",
                    "type": "uint256"
                }
            ],
            "name": "tokenURI",
            "outputs": [
                {
                    "internalType": "string",
                    "name": "",
                    "type": "string"
                }
            ],
            "stateMutability": "view",
            "type": "function"
        },
        {
            "inputs": [],
            "name": "totalSupply",
            "outputs": [
                {
                    "internalType": "uint256",
                    "name": "",
                    "type": "uint256"
                }
            ],
            "stateMutability": "view",
            "type": "function"
        },
        {
            "inputs": [
                {
                    "internalType": "address",
                    "name": "from",
                    "type": "address"
                },
                {
                    "internalType": "address",
                    "name": "to",
                    "type": "address"
                },
                {
                    "internalType": "uint256",
                    "name": "tokenId",
                    "type": "uint256"
                }
            ],
            "name": "transferFrom",
            "outputs": [],
            "stateMutability": "nonpayable",
            "type": "function"
        },
        {
            "inputs": [
                {
                    "internalType": "address",
                    "name": "deployer",
                    "type": "address"
                }
            ],
            "name": "tw_initializeOwner",
            "outputs": [],
            "stateMutability": "nonpayable",
            "type": "function"
        },
        {
            "inputs": [],
            "name": "whitelistMaxSupply",
            "outputs": [
                {
                    "internalType": "uint256",
                    "name": "",
                    "type": "uint256"
                }
            ],
            "stateMutability": "view",
            "type": "function"
        },
        {
            "inputs": [],
            "name": "whitelistMinted",
            "outputs": [
                {
                    "internalType": "uint256",
                    "name": "",
                    "type": "uint256"
                }
            ],
            "stateMutability": "view",
            "type": "function"
        }
    ],
    "bytecode": "0x6080604052662386f26fc10000600b556001600c60006101000a81548160ff0219169083151502179055503480156200003757600080fd5b5060405162002d9438038062002d9483398181016040528101906200005d919062000339565b6040518060400160405280601081526020017f42616420446f677320436f6d70616e79000000000000000000000000000000008152506040518060400160405280600381526020017f42444300000000000000000000000000000000000000000000000000000000008152508160029080519060200190620000e192919062000200565b508060039080519060200190620000fa92919062000200565b506200010b6200015460201b60201c565b600081905550505062000124336200015960201b60201c565b82600a90805190602001906200013c92919062000200565b5081600d8190555080600e81905550505050620005ae565b600090565b6000600860009054906101000a900473ffffffffffffffffffffffffffffffffffffffff16905081600860006101000a81548173ffffffffffffffffffffffffffffffffffffffff021916908373ffffffffffffffffffffffffffffffffffffffff1602179055507f8292fce18fa69edf4db7b94ea2e58241df0ae57f97e0a6c9b29067028bf92d768183604051620001f4929190620003b9565b60405180910390a15050565b8280546200020e90620004b9565b90600052602060002090601f0160209004810192826200023257600085556200027e565b82601f106200024d57805160ff19168380011785556200027e565b828001600101855582156200027e579182015b828111156200027d57825182559160200191906001019062000260565b5b5090506200028d919062000291565b5090565b5b80821115620002ac57600081600090555060010162000292565b5090565b6000620002c7620002c1846200040f565b620003e6565b905082815260208101848484011115620002e057600080fd5b620002ed84828562000483565b509392505050565b600082601f8301126200030757600080fd5b815162000319848260208601620002b0565b91505092915050565b600081519050620003338162000594565b92915050565b6000806000606084860312156200034f57600080fd5b600084015167ffffffffffffffff8111156200036a57600080fd5b6200037886828701620002f5565b93505060206200038b8682870162000322565b92505060406200039e8682870162000322565b9150509250925092565b620003b38162000445565b82525050565b6000604082019050620003d06000830185620003a8565b620003df6020830184620003a8565b9392505050565b6000620003f262000405565b9050620004008282620004ef565b919050565b6000604051905090565b600067ffffffffffffffff8211156200042d576200042c62000554565b5b620004388262000583565b9050602081019050919050565b6000620004528262000459565b9050919050565b600073ffffffffffffffffffffffffffffffffffffffff82169050919050565b6000819050919050565b60005b83811015620004a357808201518184015260208101905062000486565b83811115620004b3576000848401525b50505050565b60006002820490506001821680620004d257607f821691505b60208210811415620004e957620004e862000525565b5b50919050565b620004fa8262000583565b810181811067ffffffffffffffff821117156200051c576200051b62000554565b5b80604052505050565b7f4e487b7100000000000000000000000000000000000000000000000000000000600052602260045260246000fd5b7f4e487b7100000000000000000000000000000000000000000000000000000000600052604160045260246000fd5b6000601f19601f8301169050919050565b6200059f8162000479565b8114620005ab57600080fd5b50565b6127d680620005be6000396000f3fe6080604052600436106101815760003560e01c80635665af13116100d15780638990694f1161008a578063a22cb46511610064578063a22cb46514610563578063b88d4fde1461058c578063c87b56dd146105b5578063e985e9c5146105f257610181565b80638990694f146104e25780638da5cb5b1461050d57806395d89b411461053857610181565b80635665af13146103bc57806358f46285146103e75780635c975abb146104125780636352211e1461043d57806370a082311461047a578063714c5398146104b757610181565b806313af40351161013e57806323b872dd1161011857806323b872dd1461032557806340c10f191461034e57806342842e0e1461036a57806355f804b31461039357610181565b806313af4035146102a857806316c38b3c146102d157806318160ddd146102fa57610181565b806301ffc9a71461018657806306fdde03146101c357806307e89ec0146101ee578063081812fc14610219578063095ea7b31461025657806310ce19a41461027f575b600080fd5b34801561019257600080fd5b506101ad60048036038101906101a89190611f05565b61062f565b6040516101ba91906121f4565b60405180910390f35b3480156101cf57600080fd5b506101d86106c1565b6040516101e5919061220f565b60405180910390f35b3480156101fa57600080fd5b50610203610753565b60405161021091906122d1565b60405180910390f35b34801561022557600080fd5b50610240600480360381019061023b9190611f98565b610759565b60405161024d9190612164565b60405180910390f35b34801561026257600080fd5b5061027d60048036038101906102789190611ea0565b6107d5565b005b34801561028b57600080fd5b506102a660048036038101906102a19190611d35565b61097c565b005b3480156102b457600080fd5b506102cf60048036038101906102ca9190611d35565b610a0d565b005b3480156102dd57600080fd5b506102f860048036038101906102f39190611edc565b610a60565b005b34801561030657600080fd5b5061030f610ac4565b60405161031c91906122d1565b60405180910390f35b34801561033157600080fd5b5061034c60048036038101906103479190611d9a565b610adb565b005b61036860048036038101906103639190611ea0565b610aeb565b005b34801561037657600080fd5b50610391600480360381019061038c9190611d9a565b610bc7565b005b34801561039f57600080fd5b506103ba60048036038101906103b59190611f57565b610be7565b005b3480156103c857600080fd5b506103d1610c48565b6040516103de91906122d1565b60405180910390f35b3480156103f357600080fd5b506103fc610c4e565b60405161040991906122d1565b60405180910390f35b34801561041e57600080fd5b50610427610c54565b60405161043491906121f4565b60405180910390f35b34801561044957600080fd5b50610464600480360381019061045f9190611f98565b610c67565b6040516104719190612164565b60405180910390f35b34801561048657600080fd5b506104a1600480360381019061049c9190611d35565b610c79565b6040516104ae91906122d1565b60405180910390f35b3480156104c357600080fd5b506104cc610d32565b6040516104d9919061220f565b60405180910390f35b3480156104ee57600080fd5b506104f7610dc4565b60405161050491906122d1565b60405180910390f35b34801561051957600080fd5b50610522610dca565b60405161052f9190612164565b60405180910390f35b34801561054457600080fd5b5061054d610df0565b60405161055a919061220f565b60405180910390f35b34801561056f57600080fd5b5061058a60048036038101906105859190611e64565b610e82565b005b34801561059857600080fd5b506105b360048036038101906105ae9190611de9565b610ffa565b005b3480156105c157600080fd5b506105dc60048036038101906105d79190611f98565b61106d565b6040516105e9919061220f565b60405180910390f35b3480156105fe57600080fd5b5061061960048036038101906106149190611d5e565b61110c565b60405161062691906121f4565b60405180910390f35b60006301ffc9a760e01b827bffffffffffffffffffffffffffffffffffffffffffffffffffffffff1916148061068a57506380ac58cd60e01b827bffffffffffffffffffffffffffffffffffffffffffffffffffffffff1916145b806106ba5750635b5e139f60e01b827bffffffffffffffffffffffffffffffffffffffffffffffffffffffff1916145b9050919050565b6060600280546106d090612550565b80601f01602080910402602001604051908101604052809291908181526020018280546106fc90612550565b80156107495780601f1061071e57610100808354040283529160200191610749565b820191906000526020600020905b81548152906001019060200180831161072c57829003601f168201915b5050505050905090565b600b5481565b6000610764826111a0565b61079a576040517fcf4700e400000000000000000000000000000000000000000000000000000000815260040160405180910390fd5b6006600083815260200190815260200160002060009054906101000a900473ffffffffffffffffffffffffffffffffffffffff169050919050565b60006107e0826111ff565b90508073ffffffffffffffffffffffffffffffffffffffff168373ffffffffffffffffffffffffffffffffffffffff161415610848576040517f943f7b8c00000000000000000000000000000000000000000000000000000000815260040160405180910390fd5b8073ffffffffffffffffffffffffffffffffffffffff166108676112cd565b73ffffffffffffffffffffffffffffffffffffffff16146108ca576108938161088e6112cd565b61110c565b6108c9576040517fcfb3b94200000000000000000000000000000000000000000000000000000000815260040160405180910390fd5b5b826006600084815260200190815260200160002060006101000a81548173ffffffffffffffffffffffffffffffffffffffff021916908373ffffffffffffffffffffffffffffffffffffffff160217905550818373ffffffffffffffffffffffffffffffffffffffff168273ffffffffffffffffffffffffffffffffffffffff167f8c5be1e5ebec7d5bd14f71427d1e84f3dd0314c0f7b2291e5b200ac8c7c3b92560405160405180910390a4505050565b6000600954146109c1576040517f08c379a00000000000000000000000000000000000000000000000000000000081526004016109b890612271565b60405180910390fd5b600160098190555080600860006101000a81548173ffffffffffffffffffffffffffffffffffffffff021916908373ffffffffffffffffffffffffffffffffffffffff16021790555050565b610a156112d5565b610a54576040517f08c379a0000000000000000000000000000000000000000000000000000000008152600401610a4b906122b1565b60405180910390fd5b610a5d8161132d565b50565b610a686112d5565b610aa7576040517f08c379a0000000000000000000000000000000000000000000000000000000008152600401610a9e90612231565b60405180910390fd5b80600c60006101000a81548160ff02191690831515021790555050565b6000610ace6113d2565b6001546000540303905090565b610ae68383836113d7565b505050565b600b5481348183610afc919061240c565b14610b3c576040517f08c379a0000000000000000000000000000000000000000000000000000000008152600401610b3390612291565b60405180910390fd5b82600e54600d54610b4d9190612466565b81610b56611781565b610b6091906123b6565b1115610ba1576040517f08c379a0000000000000000000000000000000000000000000000000000000008152600401610b9890612251565b60405180910390fd5b600c60009054906101000a900460ff16610bc057610bbf8585611794565b5b5050505050565b610be283838360405180602001604052806000815250610ffa565b505050565b610bef6112d5565b610c2e576040517f08c379a0000000000000000000000000000000000000000000000000000000008152600401610c2590612231565b60405180910390fd5b80600a9080519060200190610c44929190611b59565b5050565b600d5481565b600e5481565b600c60009054906101000a900460ff1681565b6000610c72826111ff565b9050919050565b60008073ffffffffffffffffffffffffffffffffffffffff168273ffffffffffffffffffffffffffffffffffffffff161415610ce1576040517f8f4eb60400000000000000000000000000000000000000000000000000000000815260040160405180910390fd5b67ffffffffffffffff600560008473ffffffffffffffffffffffffffffffffffffffff1673ffffffffffffffffffffffffffffffffffffffff16815260200190815260200160002054169050919050565b6060600a8054610d4190612550565b80601f0160208091040260200160405190810160405280929190818152602001828054610d6d90612550565b8015610dba5780601f10610d8f57610100808354040283529160200191610dba565b820191906000526020600020905b815481529060010190602001808311610d9d57829003601f168201915b5050505050905090565b600f5481565b600860009054906101000a900473ffffffffffffffffffffffffffffffffffffffff1681565b606060038054610dff90612550565b80601f0160208091040260200160405190810160405280929190818152602001828054610e2b90612550565b8015610e785780601f10610e4d57610100808354040283529160200191610e78565b820191906000526020600020905b815481529060010190602001808311610e5b57829003601f168201915b5050505050905090565b610e8a6112cd565b73ffffffffffffffffffffffffffffffffffffffff168273ffffffffffffffffffffffffffffffffffffffff161415610eef576040517fb06307db00000000000000000000000000000000000000000000000000000000815260040160405180910390fd5b8060076000610efc6112cd565b73ffffffffffffffffffffffffffffffffffffffff1673ffffffffffffffffffffffffffffffffffffffff16815260200190815260200160002060008473ffffffffffffffffffffffffffffffffffffffff1673ffffffffffffffffffffffffffffffffffffffff16815260200190815260200160002060006101000a81548160ff0219169083151502179055508173ffffffffffffffffffffffffffffffffffffffff16610fa96112cd565b73ffffffffffffffffffffffffffffffffffffffff167f17307eab39ab6107e8899845ad3d59bd9653f200f220920489ca2b5937696c3183604051610fee91906121f4565b60405180910390a35050565b6110058484846113d7565b60008373ffffffffffffffffffffffffffffffffffffffff163b146110675761103084848484611968565b611066576040517fd1a57ed600000000000000000000000000000000000000000000000000000000815260040160405180910390fd5b5b50505050565b6060611078826111a0565b6110ae576040517fa14c4b5000000000000000000000000000000000000000000000000000000000815260040160405180910390fd5b60006110b8611ac8565b90506000815114156110d95760405180602001604052806000815250611104565b806110e384611adf565b6040516020016110f4929190612140565b6040516020818303038152906040525b915050919050565b6000600760008473ffffffffffffffffffffffffffffffffffffffff1673ffffffffffffffffffffffffffffffffffffffff16815260200190815260200160002060008373ffffffffffffffffffffffffffffffffffffffff1673ffffffffffffffffffffffffffffffffffffffff16815260200190815260200160002060009054906101000a900460ff16905092915050565b6000816111ab6113d2565b111580156111ba575060005482105b80156111f8575060007c0100000000000000000000000000000000000000000000000000000000600460008581526020019081526020016000205416145b9050919050565b6000808290508061120e6113d2565b11611296576000548110156112955760006004600083815260200190815260200160002054905060007c010000000000000000000000000000000000000000000000000000000082161415611293575b600081141561128957600460008360019003935083815260200190815260200160002054905061125e565b80925050506112c8565b505b5b6040517fdf2d9b4200000000000000000000000000000000000000000000000000000000815260040160405180910390fd5b919050565b600033905090565b6000600860009054906101000a900473ffffffffffffffffffffffffffffffffffffffff1673ffffffffffffffffffffffffffffffffffffffff163373ffffffffffffffffffffffffffffffffffffffff1614905090565b6000600860009054906101000a900473ffffffffffffffffffffffffffffffffffffffff16905081600860006101000a81548173ffffffffffffffffffffffffffffffffffffffff021916908373ffffffffffffffffffffffffffffffffffffffff1602179055507f8292fce18fa69edf4db7b94ea2e58241df0ae57f97e0a6c9b29067028bf92d7681836040516113c692919061217f565b60405180910390a15050565b600090565b60006113e2826111ff565b90508373ffffffffffffffffffffffffffffffffffffffff168173ffffffffffffffffffffffffffffffffffffffff1614611449576040517fa114810000000000000000000000000000000000000000000000000000000000815260040160405180910390fd5b60008473ffffffffffffffffffffffffffffffffffffffff1661146a6112cd565b73ffffffffffffffffffffffffffffffffffffffff1614806114995750611498856114936112cd565b61110c565b5b806114de57506114a76112cd565b73ffffffffffffffffffffffffffffffffffffffff166114c684610759565b73ffffffffffffffffffffffffffffffffffffffff16145b905080611517576040517f59c896be00000000000000000000000000000000000000000000000000000000815260040160405180910390fd5b600073ffffffffffffffffffffffffffffffffffffffff168473ffffffffffffffffffffffffffffffffffffffff16141561157e576040517fea553b3400000000000000000000000000000000000000000000000000000000815260040160405180910390fd5b61158b8585856001611b39565b6006600084815260200190815260200160002060006101000a81549073ffffffffffffffffffffffffffffffffffffffff0219169055600560008673ffffffffffffffffffffffffffffffffffffffff1673ffffffffffffffffffffffffffffffffffffffff168152602001908152602001600020600081546001900391905081905550600560008573ffffffffffffffffffffffffffffffffffffffff1673ffffffffffffffffffffffffffffffffffffffff16815260200190815260200160002060008154600101919050819055507c020000000000000000000000000000000000000000000000000000000060a042901b61168886611b3f565b1717600460008581526020019081526020016000208190555060007c02000000000000000000000000000000000000000000000000000000008316141561171257600060018401905060006004600083815260200190815260200160002054141561171057600054811461170f578260046000838152602001908152602001600020819055505b5b505b828473ffffffffffffffffffffffffffffffffffffffff168673ffffffffffffffffffffffffffffffffffffffff167fddf252ad1be2c89b69c2b068fc378daa952ba7f163c4a11628f55a4df523b3ef60405160405180910390a461177a8585856001611b49565b5050505050565b600061178b6113d2565b60005403905090565b600080549050600073ffffffffffffffffffffffffffffffffffffffff168373ffffffffffffffffffffffffffffffffffffffff161415611801576040517f2e07630000000000000000000000000000000000000000000000000000000000815260040160405180910390fd5b600082141561183c576040517fb562e8dd00000000000000000000000000000000000000000000000000000000815260040160405180910390fd5b6118496000848385611b39565b600160406001901b178202600560008573ffffffffffffffffffffffffffffffffffffffff1673ffffffffffffffffffffffffffffffffffffffff1681526020019081526020016000206000828254019250508190555060e16118ae60018414611b4f565b901b60a042901b6118be85611b3f565b171760046000838152602001908152602001600020819055506000819050600083820190505b818060010192508573ffffffffffffffffffffffffffffffffffffffff16600073ffffffffffffffffffffffffffffffffffffffff167fddf252ad1be2c89b69c2b068fc378daa952ba7f163c4a11628f55a4df523b3ef60405160405180910390a48082106118e4578160008190555050506119636000848385611b49565b505050565b60008373ffffffffffffffffffffffffffffffffffffffff1663150b7a0261198e6112cd565b8786866040518563ffffffff1660e01b81526004016119b094939291906121a8565b602060405180830381600087803b1580156119ca57600080fd5b505af19250505080156119fb57506040513d601f19601f820116820180604052508101906119f89190611f2e565b60015b611a75573d8060008114611a2b576040519150601f19603f3d011682016040523d82523d6000602084013e611a30565b606091505b50600081511415611a6d576040517fd1a57ed600000000000000000000000000000000000000000000000000000000815260040160405180910390fd5b805181602001fd5b63150b7a0260e01b7bffffffffffffffffffffffffffffffffffffffffffffffffffffffff1916817bffffffffffffffffffffffffffffffffffffffffffffffffffffffff191614915050949350505050565b606060405180602001604052806000815250905090565b60606080604051019050806040528082600183039250600a81066030018353600a810490505b8015611b2557600183039250600a81066030018353600a81049050611b05565b508181036020830392508083525050919050565b50505050565b6000819050919050565b50505050565b6000819050919050565b828054611b6590612550565b90600052602060002090601f016020900481019282611b875760008555611bce565b82601f10611ba057805160ff1916838001178555611bce565b82800160010185558215611bce579182015b82811115611bcd578251825591602001919060010190611bb2565b5b509050611bdb9190611bdf565b5090565b5b80821115611bf8576000816000905550600101611be0565b5090565b6000611c0f611c0a84612311565b6122ec565b905082815260208101848484011115611c2757600080fd5b611c3284828561250e565b509392505050565b6000611c4d611c4884612342565b6122ec565b905082815260208101848484011115611c6557600080fd5b611c7084828561250e565b509392505050565b600081359050611c8781612744565b92915050565b600081359050611c9c8161275b565b92915050565b600081359050611cb181612772565b92915050565b600081519050611cc681612772565b92915050565b600082601f830112611cdd57600080fd5b8135611ced848260208601611bfc565b91505092915050565b600082601f830112611d0757600080fd5b8135611d17848260208601611c3a565b91505092915050565b600081359050611d2f81612789565b92915050565b600060208284031215611d4757600080fd5b6000611d5584828501611c78565b91505092915050565b60008060408385031215611d7157600080fd5b6000611d7f85828601611c78565b9250506020611d9085828601611c78565b9150509250929050565b600080600060608486031215611daf57600080fd5b6000611dbd86828701611c78565b9350506020611dce86828701611c78565b9250506040611ddf86828701611d20565b9150509250925092565b60008060008060808587031215611dff57600080fd5b6000611e0d87828801611c78565b9450506020611e1e87828801611c78565b9350506040611e2f87828801611d20565b925050606085013567ffffffffffffffff811115611e4c57600080fd5b611e5887828801611ccc565b91505092959194509250565b60008060408385031215611e7757600080fd5b6000611e8585828601611c78565b9250506020611e9685828601611c8d565b9150509250929050565b60008060408385031215611eb357600080fd5b6000611ec185828601611c78565b9250506020611ed285828601611d20565b9150509250929050565b600060208284031215611eee57600080fd5b6000611efc84828501611c8d565b91505092915050565b600060208284031215611f1757600080fd5b6000611f2584828501611ca2565b91505092915050565b600060208284031215611f4057600080fd5b6000611f4e84828501611cb7565b91505092915050565b600060208284031215611f6957600080fd5b600082013567ffffffffffffffff811115611f8357600080fd5b611f8f84828501611cf6565b91505092915050565b600060208284031215611faa57600080fd5b6000611fb884828501611d20565b91505092915050565b611fca8161249a565b82525050565b611fd9816124ac565b82525050565b6000611fea82612373565b611ff48185612389565b935061200481856020860161251d565b61200d81612640565b840191505092915050565b60006120238261237e565b61202d818561239a565b935061203d81856020860161251d565b61204681612640565b840191505092915050565b600061205c8261237e565b61206681856123ab565b935061207681856020860161251d565b80840191505092915050565b600061208f601c8361239a565b915061209a82612651565b602082019050919050565b60006120b260208361239a565b91506120bd8261267a565b602082019050919050565b60006120d560198361239a565b91506120e0826126a3565b602082019050919050565b60006120f860228361239a565b9150612103826126cc565b604082019050919050565b600061211b600e8361239a565b91506121268261271b565b602082019050919050565b61213a81612504565b82525050565b600061214c8285612051565b91506121588284612051565b91508190509392505050565b60006020820190506121796000830184611fc1565b92915050565b60006040820190506121946000830185611fc1565b6121a16020830184611fc1565b9392505050565b60006080820190506121bd6000830187611fc1565b6121ca6020830186611fc1565b6121d76040830185612131565b81810360608301526121e98184611fdf565b905095945050505050565b60006020820190506122096000830184611fd0565b92915050565b600060208201905081810360008301526122298184612018565b905092915050565b6000602082019050818103600083015261224a81612082565b9050919050565b6000602082019050818103600083015261226a816120a5565b9050919050565b6000602082019050818103600083015261228a816120c8565b9050919050565b600060208201905081810360008301526122aa816120eb565b9050919050565b600060208201905081810360008301526122ca8161210e565b9050919050565b60006020820190506122e66000830184612131565b92915050565b60006122f6612307565b90506123028282612582565b919050565b6000604051905090565b600067ffffffffffffffff82111561232c5761232b612611565b5b61233582612640565b9050602081019050919050565b600067ffffffffffffffff82111561235d5761235c612611565b5b61236682612640565b9050602081019050919050565b600081519050919050565b600081519050919050565b600082825260208201905092915050565b600082825260208201905092915050565b600081905092915050565b60006123c182612504565b91506123cc83612504565b9250827fffffffffffffffffffffffffffffffffffffffffffffffffffffffffffffffff03821115612401576124006125b3565b5b828201905092915050565b600061241782612504565b915061242283612504565b9250817fffffffffffffffffffffffffffffffffffffffffffffffffffffffffffffffff048311821515161561245b5761245a6125b3565b5b828202905092915050565b600061247182612504565b915061247c83612504565b92508282101561248f5761248e6125b3565b5b828203905092915050565b60006124a5826124e4565b9050919050565b60008115159050919050565b60007fffffffff0000000000000000000000000000000000000000000000000000000082169050919050565b600073ffffffffffffffffffffffffffffffffffffffff82169050919050565b6000819050919050565b82818337600083830152505050565b60005b8381101561253b578082015181840152602081019050612520565b8381111561254a576000848401525b50505050565b6000600282049050600182168061256857607f821691505b6020821081141561257c5761257b6125e2565b5b50919050565b61258b82612640565b810181811067ffffffffffffffff821117156125aa576125a9612611565b5b80604052505050565b7f4e487b7100000000000000000000000000000000000000000000000000000000600052601160045260246000fd5b7f4e487b7100000000000000000000000000000000000000000000000000000000600052602260045260246000fd5b7f4e487b7100000000000000000000000000000000000000000000000000000000600052604160045260246000fd5b6000601f19601f8301169050919050565b7f4f776e61626c653a2063616c6c6572206973206e6f74206f776e657200000000600082015250565b7f4e6f7420656e6f756768204244432072656d61696e696e6720746f206d696e74600082015250565b7f4f776e657220616c726561647920696e697469616c697a656400000000000000600082015250565b7f496e636f7272656374204554482076616c75652073656e742076616c7565206960008201527f7320000000000000000000000000000000000000000000000000000000000000602082015250565b7f4e6f7420617574686f72697a6564000000000000000000000000000000000000600082015250565b61274d8161249a565b811461275857600080fd5b50565b612764816124ac565b811461276f57600080fd5b50565b61277b816124b8565b811461278657600080fd5b50565b61279281612504565b811461279d57600080fd5b5056fea26469706673582212207bbfbd3bcbe3b28eed71db5cea5fbb7fb3814862b6f1670745bf8ae42660e2e764736f6c63430008040033",
    "linkReferences": {},
    "deployedLinkReferences": {}
}