{
  "_format": "hh-sol-artifact-1",
  "contractName": "BDC",
  "sourceName": "contracts/BDC.sol",
  "abi": [
    {
      "inputs": [
        {
          "internalType": "address[]",
          "name": "_payees",
          "type": "address[]"
        },
        {
          "internalType": "uint256[]",
          "name": "_shares",
          "type": "uint256[]"
        },
        {
          "internalType": "uint256",
          "name": "_maxApes",
          "type": "uint256"
        },
        {
          "internalType": "uint256",
          "name": "_maxWLSaleBDCs",
          "type": "uint256"
        }
      ],
      "stateMutability": "nonpayable",
      "type": "constructor"
    },
    {
      "inputs": [],
      "name": "ApprovalCallerNotOwnerNorApproved",
      "type": "error"
    },
    {
      "inputs": [],
      "name": "ApprovalQueryForNonexistentToken",
      "type": "error"
    },
    {
      "inputs": [],
      "name": "ApprovalToCurrentOwner",
      "type": "error"
    },
    {
      "inputs": [],
      "name": "ApproveToCaller",
      "type": "error"
    },
    {
      "inputs": [],
      "name": "BalanceQueryForZeroAddress",
      "type": "error"
    },
    {
      "inputs": [],
      "name": "MintToZeroAddress",
      "type": "error"
    },
    {
      "inputs": [],
      "name": "MintZeroQuantity",
      "type": "error"
    },
    {
      "inputs": [],
      "name": "OwnerQueryForNonexistentToken",
      "type": "error"
    },
    {
      "inputs": [],
      "name": "TransferCallerNotOwnerNorApproved",
      "type": "error"
    },
    {
      "inputs": [],
      "name": "TransferFromIncorrectOwner",
      "type": "error"
    },
    {
      "inputs": [],
      "name": "TransferToNonERC721ReceiverImplementer",
      "type": "error"
    },
    {
      "inputs": [],
      "name": "TransferToZeroAddress",
      "type": "error"
    },
    {
      "inputs": [],
      "name": "URIQueryForNonexistentToken",
      "type": "error"
    },
    {
      "anonymous": false,
      "inputs": [
        {
          "indexed": true,
          "internalType": "address",
          "name": "owner",
          "type": "address"
        },
        {
          "indexed": true,
          "internalType": "address",
          "name": "approved",
          "type": "address"
        },
        {
          "indexed": true,
          "internalType": "uint256",
          "name": "tokenId",
          "type": "uint256"
        }
      ],
      "name": "Approval",
      "type": "event"
    },
    {
      "anonymous": false,
      "inputs": [
        {
          "indexed": true,
          "internalType": "address",
          "name": "owner",
          "type": "address"
        },
        {
          "indexed": true,
          "internalType": "address",
          "name": "operator",
          "type": "address"
        },
        {
          "indexed": false,
          "internalType": "bool",
          "name": "approved",
          "type": "bool"
        }
      ],
      "name": "ApprovalForAll",
      "type": "event"
    },
    {
      "anonymous": false,
      "inputs": [
        {
          "indexed": true,
          "internalType": "contract IERC20",
          "name": "token",
          "type": "address"
        },
        {
          "indexed": false,
          "internalType": "address",
          "name": "to",
          "type": "address"
        },
        {
          "indexed": false,
          "internalType": "uint256",
          "name": "amount",
          "type": "uint256"
        }
      ],
      "name": "ERC20PaymentReleased",
      "type": "event"
    },
    {
      "anonymous": false,
      "inputs": [
        {
          "indexed": true,
          "internalType": "address",
          "name": "previousOwner",
          "type": "address"
        },
        {
          "indexed": true,
          "internalType": "address",
          "name": "newOwner",
          "type": "address"
        }
      ],
      "name": "OwnershipTransferred",
      "type": "event"
    },
    {
      "anonymous": false,
      "inputs": [
        {
          "indexed": false,
          "internalType": "address",
          "name": "account",
          "type": "address"
        },
        {
          "indexed": false,
          "internalType": "uint256",
          "name": "shares",
          "type": "uint256"
        }
      ],
      "name": "PayeeAdded",
      "type": "event"
    },
    {
      "anonymous": false,
      "inputs": [
        {
          "indexed": false,
          "internalType": "address",
          "name": "from",
          "type": "address"
        },
        {
          "indexed": false,
          "internalType": "uint256",
          "name": "amount",
          "type": "uint256"
        }
      ],
      "name": "PaymentReceived",
      "type": "event"
    },
    {
      "anonymous": false,
      "inputs": [
        {
          "indexed": false,
          "internalType": "address",
          "name": "to",
          "type": "address"
        },
        {
          "indexed": false,
          "internalType": "uint256",
          "name": "amount",
          "type": "uint256"
        }
      ],
      "name": "PaymentReleased",
      "type": "event"
    },
    {
      "anonymous": false,
      "inputs": [
        {
          "indexed": true,
          "internalType": "address",
          "name": "from",
          "type": "address"
        },
        {
          "indexed": true,
          "internalType": "address",
          "name": "to",
          "type": "address"
        },
        {
          "indexed": true,
          "internalType": "uint256",
          "name": "tokenId",
          "type": "uint256"
        }
      ],
      "name": "Transfer",
      "type": "event"
    },
    {
      "inputs": [],
      "name": "MAX_WL_BDC_PER_WALLET",
      "outputs": [
        {
          "internalType": "uint256",
          "name": "",
          "type": "uint256"
        }
      ],
      "stateMutability": "view",
      "type": "function"
    },
    {
      "inputs": [],
      "name": "PUBLIC_SALE_PRICE",
      "outputs": [
        {
          "internalType": "uint256",
          "name": "",
          "type": "uint256"
        }
      ],
      "stateMutability": "view",
      "type": "function"
    },
    {
      "inputs": [
        {
          "internalType": "address",
          "name": "to",
          "type": "address"
        },
        {
          "internalType": "uint8",
          "name": "numberOfTokens",
          "type": "uint8"
        },
        {
          "internalType": "bytes32[]",
          "name": "merkleProof",
          "type": "bytes32[]"
        }
      ],
      "name": "WLMint",
      "outputs": [],
      "stateMutability": "payable",
      "type": "function"
    },
    {
      "inputs": [
        {
          "internalType": "address",
          "name": "",
          "type": "address"
        }
      ],
      "name": "WLMintCounts",
      "outputs": [
        {
          "internalType": "uint256",
          "name": "",
          "type": "uint256"
        }
      ],
      "stateMutability": "view",
      "type": "function"
    },
    {
      "inputs": [],
      "name": "WLSaleMerkleRoot",
      "outputs": [
        {
          "internalType": "bytes32",
          "name": "",
          "type": "bytes32"
        }
      ],
      "stateMutability": "view",
      "type": "function"
    },
    {
      "inputs": [],
      "name": "WL_SALE_PRICE",
      "outputs": [
        {
          "internalType": "uint256",
          "name": "",
          "type": "uint256"
        }
      ],
      "stateMutability": "view",
      "type": "function"
    },
    {
      "inputs": [
        {
          "internalType": "uint256",
          "name": "",
          "type": "uint256"
        }
      ],
      "name": "_team",
      "outputs": [
        {
          "internalType": "address",
          "name": "",
          "type": "address"
        }
      ],
      "stateMutability": "view",
      "type": "function"
    },
    {
      "inputs": [
        {
          "internalType": "address",
          "name": "to",
          "type": "address"
        },
        {
          "internalType": "uint256",
          "name": "tokenId",
          "type": "uint256"
        }
      ],
      "name": "approve",
      "outputs": [],
      "stateMutability": "nonpayable",
      "type": "function"
    },
    {
      "inputs": [
        {
          "internalType": "address",
          "name": "owner",
          "type": "address"
        }
      ],
      "name": "balanceOf",
      "outputs": [
        {
          "internalType": "uint256",
          "name": "",
          "type": "uint256"
        }
      ],
      "stateMutability": "view",
      "type": "function"
    },
    {
      "inputs": [
        {
          "internalType": "address",
          "name": "",
          "type": "address"
        }
      ],
      "name": "claimed",
      "outputs": [
        {
          "internalType": "bool",
          "name": "",
          "type": "bool"
        }
      ],
      "stateMutability": "view",
      "type": "function"
    },
    {
      "inputs": [
        {
          "internalType": "uint256",
          "name": "tokenId",
          "type": "uint256"
        }
      ],
      "name": "getApproved",
      "outputs": [
        {
          "internalType": "address",
          "name": "",
          "type": "address"
        }
      ],
      "stateMutability": "view",
      "type": "function"
    },
    {
      "inputs": [],
      "name": "getBaseURI",
      "outputs": [
        {
          "internalType": "string",
          "name": "",
          "type": "string"
        }
      ],
      "stateMutability": "view",
      "type": "function"
    },
    {
      "inputs": [],
      "name": "getLastTokenId",
      "outputs": [
        {
          "internalType": "uint256",
          "name": "",
          "type": "uint256"
        }
      ],
      "stateMutability": "view",
      "type": "function"
    },
    {
      "inputs": [
        {
          "internalType": "address",
          "name": "owner",
          "type": "address"
        },
        {
          "internalType": "address",
          "name": "operator",
          "type": "address"
        }
      ],
      "name": "isApprovedForAll",
      "outputs": [
        {
          "internalType": "bool",
          "name": "",
          "type": "bool"
        }
      ],
      "stateMutability": "view",
      "type": "function"
    },
    {
      "inputs": [],
      "name": "maxApes",
      "outputs": [
        {
          "internalType": "uint256",
          "name": "",
          "type": "uint256"
        }
      ],
      "stateMutability": "view",
      "type": "function"
    },
    {
      "inputs": [],
      "name": "maxWLSaleBDCs",
      "outputs": [
        {
          "internalType": "uint256",
          "name": "",
          "type": "uint256"
        }
      ],
      "stateMutability": "view",
      "type": "function"
    },
    {
      "inputs": [
        {
          "internalType": "address",
          "name": "to",
          "type": "address"
        },
        {
          "internalType": "uint256",
          "name": "numberOfTokens",
          "type": "uint256"
        }
      ],
      "name": "mint",
      "outputs": [],
      "stateMutability": "payable",
      "type": "function"
    },
    {
      "inputs": [],
      "name": "name",
      "outputs": [
        {
          "internalType": "string",
          "name": "",
          "type": "string"
        }
      ],
      "stateMutability": "view",
      "type": "function"
    },
    {
      "inputs": [],
      "name": "owner",
      "outputs": [
        {
          "internalType": "address",
          "name": "",
          "type": "address"
        }
      ],
      "stateMutability": "view",
      "type": "function"
    },
    {
      "inputs": [
        {
          "internalType": "uint256",
          "name": "tokenId",
          "type": "uint256"
        }
      ],
      "name": "ownerOf",
      "outputs": [
        {
          "internalType": "address",
          "name": "",
          "type": "address"
        }
      ],
      "stateMutability": "view",
      "type": "function"
    },
    {
      "inputs": [],
      "name": "paused",
      "outputs": [
        {
          "internalType": "bool",
          "name": "",
          "type": "bool"
        }
      ],
      "stateMutability": "view",
      "type": "function"
    },
    {
      "inputs": [
        {
          "internalType": "uint256",
          "name": "index",
          "type": "uint256"
        }
      ],
      "name": "payee",
      "outputs": [
        {
          "internalType": "address",
          "name": "",
          "type": "address"
        }
      ],
      "stateMutability": "view",
      "type": "function"
    },
    {
      "inputs": [
        {
          "internalType": "address payable",
          "name": "account",
          "type": "address"
        }
      ],
      "name": "release",
      "outputs": [],
      "stateMutability": "nonpayable",
      "type": "function"
    },
    {
      "inputs": [
        {
          "internalType": "contract IERC20",
          "name": "token",
          "type": "address"
        },
        {
          "internalType": "address",
          "name": "account",
          "type": "address"
        }
      ],
      "name": "release",
      "outputs": [],
      "stateMutability": "nonpayable",
      "type": "function"
    },
    {
      "inputs": [],
      "name": "releaseFunds",
      "outputs": [],
      "stateMutability": "nonpayable",
      "type": "function"
    },
    {
      "inputs": [
        {
          "internalType": "contract IERC20",
          "name": "token",
          "type": "address"
        },
        {
          "internalType": "address",
          "name": "account",
          "type": "address"
        }
      ],
      "name": "released",
      "outputs": [
        {
          "internalType": "uint256",
          "name": "",
          "type": "uint256"
        }
      ],
      "stateMutability": "view",
      "type": "function"
    },
    {
      "inputs": [
        {
          "internalType": "address",
          "name": "account",
          "type": "address"
        }
      ],
      "name": "released",
      "outputs": [
        {
          "internalType": "uint256",
          "name": "",
          "type": "uint256"
        }
      ],
      "stateMutability": "view",
      "type": "function"
    },
    {
      "inputs": [],
      "name": "renounceOwnership",
      "outputs": [],
      "stateMutability": "nonpayable",
      "type": "function"
    },
    {
      "inputs": [
        {
          "internalType": "address",
          "name": "from",
          "type": "address"
        },
        {
          "internalType": "address",
          "name": "to",
          "type": "address"
        },
        {
          "internalType": "uint256",
          "name": "tokenId",
          "type": "uint256"
        }
      ],
      "name": "safeTransferFrom",
      "outputs": [],
      "stateMutability": "nonpayable",
      "type": "function"
    },
    {
      "inputs": [
        {
          "internalType": "address",
          "name": "from",
          "type": "address"
        },
        {
          "internalType": "address",
          "name": "to",
          "type": "address"
        },
        {
          "internalType": "uint256",
          "name": "tokenId",
          "type": "uint256"
        },
        {
          "internalType": "bytes",
          "name": "_data",
          "type": "bytes"
        }
      ],
      "name": "safeTransferFrom",
      "outputs": [],
      "stateMutability": "nonpayable",
      "type": "function"
    },
    {
      "inputs": [
        {
          "internalType": "address",
          "name": "operator",
          "type": "address"
        },
        {
          "internalType": "bool",
          "name": "approved",
          "type": "bool"
        }
      ],
      "name": "setApprovalForAll",
      "outputs": [],
      "stateMutability": "nonpayable",
      "type": "function"
    },
    {
      "inputs": [
        {
          "internalType": "string",
          "name": "_baseURI",
          "type": "string"
        }
      ],
      "name": "setBaseURI",
      "outputs": [],
      "stateMutability": "nonpayable",
      "type": "function"
    },
    {
      "inputs": [
        {
          "internalType": "bool",
          "name": "_paused",
          "type": "bool"
        }
      ],
      "name": "setPaused",
      "outputs": [],
      "stateMutability": "nonpayable",
      "type": "function"
    },
    {
      "inputs": [
        {
          "internalType": "uint256",
          "name": "newMintPrice",
          "type": "uint256"
        }
      ],
      "name": "setPublicMintPrice",
      "outputs": [],
      "stateMutability": "nonpayable",
      "type": "function"
    },
    {
      "inputs": [
        {
          "internalType": "bytes32",
          "name": "merkleRoot",
          "type": "bytes32"
        }
      ],
      "name": "setWLListMerkleRoot",
      "outputs": [],
      "stateMutability": "nonpayable",
      "type": "function"
    },
    {
      "inputs": [
        {
          "internalType": "address",
          "name": "account",
          "type": "address"
        }
      ],
      "name": "shares",
      "outputs": [
        {
          "internalType": "uint256",
          "name": "",
          "type": "uint256"
        }
      ],
      "stateMutability": "view",
      "type": "function"
    },
    {
      "inputs": [
        {
          "internalType": "bytes4",
          "name": "interfaceId",
          "type": "bytes4"
        }
      ],
      "name": "supportsInterface",
      "outputs": [
        {
          "internalType": "bool",
          "name": "",
          "type": "bool"
        }
      ],
      "stateMutability": "view",
      "type": "function"
    },
    {
      "inputs": [],
      "name": "symbol",
      "outputs": [
        {
          "internalType": "string",
          "name": "",
          "type": "string"
        }
      ],
      "stateMutability": "view",
      "type": "function"
    },
    {
      "inputs": [
        {
          "internalType": "uint256",
          "name": "tokenId",
          "type": "uint256"
        }
      ],
      "name": "tokenURI",
      "outputs": [
        {
          "internalType": "string",
          "name": "",
          "type": "string"
        }
      ],
      "stateMutability": "view",
      "type": "function"
    },
    {
      "inputs": [
        {
          "internalType": "contract IERC20",
          "name": "token",
          "type": "address"
        }
      ],
      "name": "totalReleased",
      "outputs": [
        {
          "internalType": "uint256",
          "name": "",
          "type": "uint256"
        }
      ],
      "stateMutability": "view",
      "type": "function"
    },
    {
      "inputs": [],
      "name": "totalReleased",
      "outputs": [
        {
          "internalType": "uint256",
          "name": "",
          "type": "uint256"
        }
      ],
      "stateMutability": "view",
      "type": "function"
    },
    {
      "inputs": [],
      "name": "totalShares",
      "outputs": [
        {
          "internalType": "uint256",
          "name": "",
          "type": "uint256"
        }
      ],
      "stateMutability": "view",
      "type": "function"
    },
    {
      "inputs": [],
      "name": "totalSupply",
      "outputs": [
        {
          "internalType": "uint256",
          "name": "",
          "type": "uint256"
        }
      ],
      "stateMutability": "view",
      "type": "function"
    },
    {
      "inputs": [
        {
          "internalType": "address",
          "name": "from",
          "type": "address"
        },
        {
          "internalType": "address",
          "name": "to",
          "type": "address"
        },
        {
          "internalType": "uint256",
          "name": "tokenId",
          "type": "uint256"
        }
      ],
      "name": "transferFrom",
      "outputs": [],
      "stateMutability": "nonpayable",
      "type": "function"
    },
    {
      "inputs": [
        {
          "internalType": "address",
          "name": "newOwner",
          "type": "address"
        }
      ],
      "name": "transferOwnership",
      "outputs": [],
      "stateMutability": "nonpayable",
      "type": "function"
    },
    {
      "inputs": [
        {
          "internalType": "contract IERC20",
          "name": "token",
          "type": "address"
        }
      ],
      "name": "withdrawTokens",
      "outputs": [],
      "stateMutability": "nonpayable",
      "type": "function"
    },
    {
      "stateMutability": "payable",
      "type": "receive"
    }
  ],
  "bytecode": "0x60806040526015805460ff19166001179055660e35fa931a00006016553480156200002957600080fd5b5060405162003180380380620031808339810160408190526200004c91620005f9565b604080518082018252601081526f42616420446f677320436f6d70616e7960801b60208083019182528351808501909452600384526242444360e81b90840152815187938793929091620000a39160029162000484565b508051620000b990600390602084019062000484565b50506000805550620000cb3362000244565b60016009558051825114620001425760405162461bcd60e51b815260206004820152603260248201527f5061796d656e7453706c69747465723a2070617965657320616e6420736861726044820152710cae640d8cadccee8d040dad2e6dac2e8c6d60731b60648201526084015b60405180910390fd5b6000825111620001955760405162461bcd60e51b815260206004820152601a60248201527f5061796d656e7453706c69747465723a206e6f20706179656573000000000000604482015260640162000139565b60005b8251811015620002195762000204838281518110620001c757634e487b7160e01b600052603260045260246000fd5b6020026020010151838381518110620001f057634e487b7160e01b600052603260045260246000fd5b60200260200101516200029660201b60201c565b80620002108162000797565b91505062000198565b50508451620002319150601390602087019062000513565b5060149190915560175550620007e19050565b600880546001600160a01b038381166001600160a01b0319831681179093556040519116919082907f8be0079c531659141344cd1fd0a4f28419497f9722a3daafe3b4186f6b6457e090600090a35050565b6001600160a01b038216620003035760405162461bcd60e51b815260206004820152602c60248201527f5061796d656e7453706c69747465723a206163636f756e74206973207468652060448201526b7a65726f206164647265737360a01b606482015260840162000139565b60008111620003555760405162461bcd60e51b815260206004820152601d60248201527f5061796d656e7453706c69747465723a20736861726573206172652030000000604482015260640162000139565b6001600160a01b0382166000908152600c602052604090205415620003d15760405162461bcd60e51b815260206004820152602b60248201527f5061796d656e7453706c69747465723a206163636f756e7420616c726561647960448201526a206861732073686172657360a81b606482015260840162000139565b600e8054600181019091557fbb7b4a454dc3493923482f07822329ed19e8244eff582cc204f8554c3620c3fd0180546001600160a01b0319166001600160a01b0384169081179091556000908152600c60205260409020819055600a546200043b9082906200073f565b600a55604080516001600160a01b0384168152602081018390527f40c340f65e17194d14ddddb073d3c9f888e3cb52b5aae0c6c7706b4fbc905fac910160405180910390a15050565b82805462000492906200075a565b90600052602060002090601f016020900481019282620004b6576000855562000501565b82601f10620004d157805160ff191683800117855562000501565b8280016001018555821562000501579182015b8281111562000501578251825591602001919060010190620004e4565b506200050f9291506200056b565b5090565b82805482825590600052602060002090810192821562000501579160200282015b828111156200050157825182546001600160a01b0319166001600160a01b0390911617825560209092019160019091019062000534565b5b808211156200050f57600081556001016200056c565b600082601f83011262000593578081fd5b81516020620005ac620005a68362000719565b620006e6565b80838252828201915082860187848660051b8901011115620005cc578586fd5b855b85811015620005ec57815184529284019290840190600101620005ce565b5090979650505050505050565b600080600080608085870312156200060f578384fd5b84516001600160401b038082111562000626578586fd5b818701915087601f8301126200063a578586fd5b815160206200064d620005a68362000719565b8083825282820191508286018c848660051b89010111156200066d578a8bfd5b8a96505b84871015620006a65780516001600160a01b038116811462000691578b8cfd5b83526001969096019591830191830162000671565b50918a0151919850909350505080821115620006c0578485fd5b50620006cf8782880162000582565b604087015160609097015195989097509350505050565b604051601f8201601f191681016001600160401b0381118282101715620007115762000711620007cb565b604052919050565b60006001600160401b03821115620007355762000735620007cb565b5060051b60200190565b60008219821115620007555762000755620007b5565b500190565b600181811c908216806200076f57607f821691505b602082108114156200079157634e487b7160e01b600052602260045260246000fd5b50919050565b6000600019821415620007ae57620007ae620007b5565b5060010190565b634e487b7160e01b600052601160045260246000fd5b634e487b7160e01b600052604160045260246000fd5b61298f80620007f16000396000f3fe6080604052600436106102815760003560e01c806369d895751161014f578063a22cb465116100c1578063d79779b21161007a578063d79779b2146107da578063d9f8d8ea14610810578063e33b7de314610823578063e985e9c514610838578063f2fde38b14610881578063f7dd2ded146108a157600080fd5b8063a22cb465146106f4578063b88d4fde14610714578063c87b56dd14610734578063c884ef8314610754578063ce7c2ac214610784578063d3d8f102146107ba57600080fd5b806383c4c00d1161011357806383c4c00d146106415780638b83209b146106565780638da5cb5b1461067657806395d89b41146106945780639852595c146106a9578063a0c0df95146106df57600080fd5b806369d89575146105cc57806370a08231146105e1578063714c539814610601578063715018a6146106165780637a3ff14f1461062b57600080fd5b806323b872dd116101f357806348b75044116101ac57806348b750441461051257806349df728c1461053257806355f804b3146105525780635c975abb146105725780635d82cf6e1461058c5780636352211e146105ac57600080fd5b806323b872dd1461044e578063352bc9bb1461046e5780633a98ef3914610484578063406072a91461049957806340c10f19146104df57806342842e0e146104f257600080fd5b8063095ea7b311610245578063095ea7b31461039d5780631300d077146103bf57806316c38b3c146103d557806318160ddd146103f5578063191655871461040e578063204fce941461042e57600080fd5b806301ffc9a7146102cf57806306fdde031461030457806307ca97341461032657806307e89ec01461034f578063081812fc1461036557600080fd5b366102ca577f6ef95f06320e7a25a04a175ca677b7052bdd97131872c2192525a629f51be77033604080516001600160a01b0390921682523460208301520160405180910390a1005b600080fd5b3480156102db57600080fd5b506102ef6102ea366004612477565b6108ce565b60405190151581526020015b60405180910390f35b34801561031057600080fd5b50610319610920565b6040516102fb919061268a565b34801561033257600080fd5b506103416611c37937e0800081565b6040519081526020016102fb565b34801561035b57600080fd5b5061034160165481565b34801561037157600080fd5b5061038561038036600461245f565b6109b2565b6040516001600160a01b0390911681526020016102fb565b3480156103a957600080fd5b506103bd6103b8366004612367565b6109f6565b005b3480156103cb57600080fd5b5061034160175481565b3480156103e157600080fd5b506103bd6103f0366004612427565b610ac9565b34801561040157600080fd5b5060015460005403610341565b34801561041a57600080fd5b506103bd610429366004612229565b610b0f565b34801561043a57600080fd5b5061038561044936600461245f565b610c3d565b34801561045a57600080fd5b506103bd61046936600461227d565b610c67565b34801561047a57600080fd5b5061034160145481565b34801561049057600080fd5b50600a54610341565b3480156104a557600080fd5b506103416104b43660046124af565b6001600160a01b03918216600090815260106020908152604080832093909416825291909152205490565b6103bd6104ed366004612367565b610c77565b3480156104fe57600080fd5b506103bd61050d36600461227d565b610db4565b34801561051e57600080fd5b506103bd61052d3660046124af565b610dcf565b34801561053e57600080fd5b506103bd61054d366004612229565b610fb7565b34801561055e57600080fd5b506103bd61056d3660046124c1565b6110de565b34801561057e57600080fd5b506015546102ef9060ff1681565b34801561059857600080fd5b506103bd6105a736600461245f565b61111f565b3480156105b857600080fd5b506103856105c736600461245f565b61114e565b3480156105d857600080fd5b506103bd611159565b3480156105ed57600080fd5b506103416105fc366004612229565b6111e3565b34801561060d57600080fd5b50610319611232565b34801561062257600080fd5b506103bd611241565b34801561063757600080fd5b5061034160185481565b34801561064d57600080fd5b50610341611277565b34801561066257600080fd5b5061038561067136600461245f565b611287565b34801561068257600080fd5b506008546001600160a01b0316610385565b3480156106a057600080fd5b506103196112c5565b3480156106b557600080fd5b506103416106c4366004612229565b6001600160a01b03166000908152600d602052604090205490565b3480156106eb57600080fd5b50610341600381565b34801561070057600080fd5b506103bd61070f36600461233a565b6112d4565b34801561072057600080fd5b506103bd61072f3660046122bd565b61136a565b34801561074057600080fd5b5061031961074f36600461245f565b6113b4565b34801561076057600080fd5b506102ef61076f366004612229565b601a6020526000908152604090205460ff1681565b34801561079057600080fd5b5061034161079f366004612229565b6001600160a01b03166000908152600c602052604090205490565b3480156107c657600080fd5b506103bd6107d536600461245f565b611431565b3480156107e657600080fd5b506103416107f5366004612229565b6001600160a01b03166000908152600f602052604090205490565b6103bd61081e366004612392565b611460565b34801561082f57600080fd5b50600b54610341565b34801561084457600080fd5b506102ef610853366004612245565b6001600160a01b03918216600090815260076020908152604080832093909416825291909152205460ff1690565b34801561088d57600080fd5b506103bd61089c366004612229565b6116e0565b3480156108ad57600080fd5b506103416108bc366004612229565b60196020526000908152604090205481565b60006301ffc9a760e01b6001600160e01b0319831614806108ff57506380ac58cd60e01b6001600160e01b03198316145b8061091a5750635b5e139f60e01b6001600160e01b03198316145b92915050565b60606002805461092f90612874565b80601f016020809104026020016040519081016040528092919081815260200182805461095b90612874565b80156109a85780601f1061097d576101008083540402835291602001916109a8565b820191906000526020600020905b81548152906001019060200180831161098b57829003601f168201915b5050505050905090565b60006109bd82611778565b6109da576040516333d1c03960e21b815260040160405180910390fd5b506000908152600660205260409020546001600160a01b031690565b6000610a018261179f565b9050806001600160a01b0316836001600160a01b03161415610a365760405163250fdee360e21b815260040160405180910390fd5b336001600160a01b03821614610a6d57610a508133610853565b610a6d576040516367d9dca160e11b815260040160405180910390fd5b60008281526006602052604080822080546001600160a01b0319166001600160a01b0387811691821790925591518593918516917f8c5be1e5ebec7d5bd14f71427d1e84f3dd0314c0f7b2291e5b200ac8c7c3b92591a4505050565b6008546001600160a01b03163314610afc5760405162461bcd60e51b8152600401610af39061276f565b60405180910390fd5b6015805460ff1916911515919091179055565b6001600160a01b0381166000908152600c6020526040902054610b445760405162461bcd60e51b8152600401610af3906126de565b6000610b4f600b5490565b610b5990476127e6565b90506000610b868383610b81866001600160a01b03166000908152600d602052604090205490565b611807565b905080610ba55760405162461bcd60e51b8152600401610af390612724565b6001600160a01b0383166000908152600d602052604081208054839290610bcd9084906127e6565b9250508190555080600b6000828254610be691906127e6565b90915550610bf69050838261184d565b604080516001600160a01b0385168152602081018390527fdf20fd1e76bc69d672e4814fafb2c449bba3a5369d8359adf9e05e6fde87b056910160405180910390a1505050565b60138181548110610c4d57600080fd5b6000918252602090912001546001600160a01b0316905081565b610c72838383611966565b505050565b60026009541415610cca5760405162461bcd60e51b815260206004820152601f60248201527f5265656e7472616e637947756172643a207265656e7472616e742063616c6c006044820152606401610af3565b60026009556016548134610cde8284612812565b14610cfb5760405162461bcd60e51b8152600401610af3906127a4565b8260145481610d0960115490565b610d1391906127e6565b1115610d315760405162461bcd60e51b8152600401610af39061269d565b6005841115610d945760405162461bcd60e51b815260206004820152602960248201527f4d6178204244437320796f752063616e206d696e74206174206f6e652074696d60448201526865206973206669766560b81b6064820152608401610af3565b60155460ff16610da857610da88585611b09565b50506001600955505050565b610c728383836040518060200160405280600081525061136a565b6001600160a01b0381166000908152600c6020526040902054610e045760405162461bcd60e51b8152600401610af3906126de565b6001600160a01b0382166000908152600f60205260408120546040516370a0823160e01b81523060048201526001600160a01b038516906370a082319060240160206040518083038186803b158015610e5c57600080fd5b505afa158015610e70573d6000803e3d6000fd5b505050506040513d601f19601f82011682018060405250810190610e949190612507565b610e9e91906127e6565b90506000610ed78383610b8187876001600160a01b03918216600090815260106020908152604080832093909416825291909152205490565b905080610ef65760405162461bcd60e51b8152600401610af390612724565b6001600160a01b03808516600090815260106020908152604080832093871683529290529081208054839290610f2d9084906127e6565b90915550506001600160a01b0384166000908152600f602052604081208054839290610f5a9084906127e6565b90915550610f6b9050848483611be7565b604080516001600160a01b038581168252602082018490528616917f3be5b7a71e84ed12875d241991c70855ac5817d847039e17a9d895c1ceb0f18a910160405180910390a250505050565b6008546001600160a01b03163314610fe15760405162461bcd60e51b8152600401610af39061276f565b6040516370a0823160e01b81523060048201526000906001600160a01b038316906370a082319060240160206040518083038186803b15801561102357600080fd5b505afa158015611037573d6000803e3d6000fd5b505050506040513d601f19601f8201168201806040525081019061105b9190612507565b60405163a9059cbb60e01b8152336004820152602481018290529091506001600160a01b0383169063a9059cbb90604401602060405180830381600087803b1580156110a657600080fd5b505af11580156110ba573d6000803e3d6000fd5b505050506040513d601f19601f82011682018060405250810190610c729190612443565b6008546001600160a01b031633146111085760405162461bcd60e51b8152600401610af39061276f565b805161111b90601290602084019061211a565b5050565b6008546001600160a01b031633146111495760405162461bcd60e51b8152600401610af39061276f565b601655565b600061091a8261179f565b6008546001600160a01b031633146111835760405162461bcd60e51b8152600401610af39061276f565b60005b6013548110156111e0576111ce601382815481106111b457634e487b7160e01b600052603260045260246000fd5b6000918252602090912001546001600160a01b0316610b0f565b806111d8816128af565b915050611186565b50565b60006001600160a01b03821661120c576040516323d3ad8160e21b815260040160405180910390fd5b506001600160a01b031660009081526005602052604090205467ffffffffffffffff1690565b60606012805461092f90612874565b6008546001600160a01b0316331461126b5760405162461bcd60e51b8152600401610af39061276f565b6112756000611c39565b565b600061128260115490565b905090565b6000600e82815481106112aa57634e487b7160e01b600052603260045260246000fd5b6000918252602090912001546001600160a01b031692915050565b60606003805461092f90612874565b6001600160a01b0382163314156112fe5760405163b06307db60e01b815260040160405180910390fd5b3360008181526007602090815260408083206001600160a01b03871680855290835292819020805460ff191686151590811790915590519081529192917f17307eab39ab6107e8899845ad3d59bd9653f200f220920489ca2b5937696c31910160405180910390a35050565b611375848484611966565b6001600160a01b0383163b156113ae5761139184848484611c8b565b6113ae576040516368d2bf6b60e11b815260040160405180910390fd5b50505050565b60606113bf82611778565b6113ff5760405162461bcd60e51b81526020600482015260116024820152702737b732bc34b9ba32b73a103a37b5b2b760791b6044820152606401610af3565b601261140a83611d82565b60405160200161141b929190612583565b6040516020818303038152906040529050919050565b6008546001600160a01b0316331461145b5760405162461bcd60e51b8152600401610af39061276f565b601855565b600260095414156114b35760405162461bcd60e51b815260206004820152601f60248201527f5265656e7472616e637947756172643a207265656e7472616e742063616c6c006044820152606401610af3565b600260095560145460ff841690816114ca60115490565b6114d491906127e6565b11156114f25760405162461bcd60e51b8152600401610af39061269d565b6611c37937e0800060ff8516346115098284612812565b146115265760405162461bcd60e51b8152600401610af3906127a4565b848460185461159d838380806020026020016040519081016040528093929190818152602001838360200280828437600092019190915250506040516bffffffffffffffffffffffff193360601b166020820152859250603401905060405160208183030381529060405280519060200120611e9c565b6115e95760405162461bcd60e51b815260206004820152601e60248201527f4164647265737320646f6573206e6f7420657869737420696e206c69737400006044820152606401610af3565b33600090815260196020526040902054600361160860ff8c16836127e6565b11156116625760405162461bcd60e51b8152602060048201526024808201527f4d6178204244437320746f206d696e7420696e20574c2073616c6520697320746044820152636872656560e01b6064820152608401610af3565b6017548a60ff1661167260115490565b61167c91906127e6565b111561169a5760405162461bcd60e51b8152600401610af39061269d565b6116a760ff8b16826127e6565b3360009081526019602052604090205560155460ff166116ce576116ce8b8b60ff16611b09565b50506001600955505050505050505050565b6008546001600160a01b0316331461170a5760405162461bcd60e51b8152600401610af39061276f565b6001600160a01b03811661176f5760405162461bcd60e51b815260206004820152602660248201527f4f776e61626c653a206e6577206f776e657220697320746865207a65726f206160448201526564647265737360d01b6064820152608401610af3565b6111e081611c39565b600080548210801561091a575050600090815260046020526040902054600160e01b161590565b6000816000548110156117ee57600081815260046020526040902054600160e01b81166117ec575b806117e55750600019016000818152600460205260409020546117c7565b9392505050565b505b604051636f96cda160e11b815260040160405180910390fd5b600a546001600160a01b0384166000908152600c6020526040812054909183916118319086612812565b61183b91906127fe565b6118459190612831565b949350505050565b8047101561189d5760405162461bcd60e51b815260206004820152601d60248201527f416464726573733a20696e73756666696369656e742062616c616e63650000006044820152606401610af3565b6000826001600160a01b03168260405160006040518083038185875af1925050503d80600081146118ea576040519150601f19603f3d011682016040523d82523d6000602084013e6118ef565b606091505b5050905080610c725760405162461bcd60e51b815260206004820152603a60248201527f416464726573733a20756e61626c6520746f2073656e642076616c75652c207260448201527f6563697069656e74206d617920686176652072657665727465640000000000006064820152608401610af3565b60006119718261179f565b9050836001600160a01b0316816001600160a01b0316146119a45760405162a1148160e81b815260040160405180910390fd5b6000336001600160a01b03861614806119c257506119c28533610853565b806119dd5750336119d2846109b2565b6001600160a01b0316145b9050806119fd57604051632ce44b5f60e11b815260040160405180910390fd5b6001600160a01b038416611a2457604051633a954ecd60e21b815260040160405180910390fd5b600083815260066020908152604080832080546001600160a01b03191690556001600160a01b038881168452600583528184208054600019019055871683528083208054600101905585835260049091529020600160e11b4260a01b861781179091558216611ac15760018301600081815260046020526040902054611abf576000548114611abf5760008181526004602052604090208390555b505b82846001600160a01b0316866001600160a01b03167fddf252ad1be2c89b69c2b068fc378daa952ba7f163c4a11628f55a4df523b3ef60405160405180910390a45050505050565b6000546001600160a01b038316611b3257604051622e076360e81b815260040160405180910390fd5b81611b505760405163b562e8dd60e01b815260040160405180910390fd5b6001600160a01b03831660009081526005602090815260408083208054680100000000000000018702019055838352600490915290204260a01b84176001841460e11b179055808083015b6040516001830192906001600160a01b038716906000907fddf252ad1be2c89b69c2b068fc378daa952ba7f163c4a11628f55a4df523b3ef908290a4808210611b9b5750600055505050565b604080516001600160a01b038416602482015260448082018490528251808303909101815260649091019091526020810180516001600160e01b031663a9059cbb60e01b179052610c72908490611eb2565b600880546001600160a01b038381166001600160a01b0319831681179093556040519116919082907f8be0079c531659141344cd1fd0a4f28419497f9722a3daafe3b4186f6b6457e090600090a35050565b604051630a85bd0160e11b81526000906001600160a01b0385169063150b7a0290611cc090339089908890889060040161264d565b602060405180830381600087803b158015611cda57600080fd5b505af1925050508015611d0a575060408051601f3d908101601f19168201909252611d0791810190612493565b60015b611d65573d808015611d38576040519150601f19603f3d011682016040523d82523d6000602084013e611d3d565b606091505b508051611d5d576040516368d2bf6b60e11b815260040160405180910390fd5b805181602001fd5b6001600160e01b031916630a85bd0160e11b149050949350505050565b606081611da65750506040805180820190915260018152600360fc1b602082015290565b8160005b8115611dd05780611dba816128af565b9150611dc99050600a836127fe565b9150611daa565b60008167ffffffffffffffff811115611df957634e487b7160e01b600052604160045260246000fd5b6040519080825280601f01601f191660200182016040528015611e23576020820181803683370190505b5090505b841561184557611e38600183612831565b9150611e45600a866128ca565b611e509060306127e6565b60f81b818381518110611e7357634e487b7160e01b600052603260045260246000fd5b60200101906001600160f81b031916908160001a905350611e95600a866127fe565b9450611e27565b600082611ea98584611f84565b14949350505050565b6000611f07826040518060400160405280602081526020017f5361666545524332303a206c6f772d6c6576656c2063616c6c206661696c6564815250856001600160a01b03166120069092919063ffffffff16565b805190915015610c725780806020019051810190611f259190612443565b610c725760405162461bcd60e51b815260206004820152602a60248201527f5361666545524332303a204552433230206f7065726174696f6e20646964206e6044820152691bdd081cdd58d8d9595960b21b6064820152608401610af3565b600081815b8451811015611ffe576000858281518110611fb457634e487b7160e01b600052603260045260246000fd5b60200260200101519050808311611fda5760008381526020829052604090209250611feb565b600081815260208490526040902092505b5080611ff6816128af565b915050611f89565b509392505050565b60606118458484600085856001600160a01b0385163b6120685760405162461bcd60e51b815260206004820152601d60248201527f416464726573733a2063616c6c20746f206e6f6e2d636f6e74726163740000006044820152606401610af3565b600080866001600160a01b031685876040516120849190612567565b60006040518083038185875af1925050503d80600081146120c1576040519150601f19603f3d011682016040523d82523d6000602084013e6120c6565b606091505b50915091506120d68282866120e1565b979650505050505050565b606083156120f05750816117e5565b8251156121005782518084602001fd5b8160405162461bcd60e51b8152600401610af3919061268a565b82805461212690612874565b90600052602060002090601f016020900481019282612148576000855561218e565b82601f1061216157805160ff191683800117855561218e565b8280016001018555821561218e579182015b8281111561218e578251825591602001919060010190612173565b5061219a92915061219e565b5090565b5b8082111561219a576000815560010161219f565b600067ffffffffffffffff808411156121ce576121ce61290a565b604051601f8501601f19908116603f011681019082821181831017156121f6576121f661290a565b8160405280935085815286868601111561220f57600080fd5b858560208301376000602087830101525050509392505050565b60006020828403121561223a578081fd5b81356117e581612920565b60008060408385031215612257578081fd5b823561226281612920565b9150602083013561227281612920565b809150509250929050565b600080600060608486031215612291578081fd5b833561229c81612920565b925060208401356122ac81612920565b929592945050506040919091013590565b600080600080608085870312156122d2578081fd5b84356122dd81612920565b935060208501356122ed81612920565b925060408501359150606085013567ffffffffffffffff81111561230f578182fd5b8501601f8101871361231f578182fd5b61232e878235602084016121b3565b91505092959194509250565b6000806040838503121561234c578182fd5b823561235781612920565b9150602083013561227281612935565b60008060408385031215612379578182fd5b823561238481612920565b946020939093013593505050565b600080600080606085870312156123a7578384fd5b84356123b281612920565b9350602085013560ff811681146123c7578384fd5b9250604085013567ffffffffffffffff808211156123e3578384fd5b818701915087601f8301126123f6578384fd5b813581811115612404578485fd5b8860208260051b8501011115612418578485fd5b95989497505060200194505050565b600060208284031215612438578081fd5b81356117e581612935565b600060208284031215612454578081fd5b81516117e581612935565b600060208284031215612470578081fd5b5035919050565b600060208284031215612488578081fd5b81356117e581612943565b6000602082840312156124a4578081fd5b81516117e581612943565b60008060408385031215612257578182fd5b6000602082840312156124d2578081fd5b813567ffffffffffffffff8111156124e8578182fd5b8201601f810184136124f8578182fd5b611845848235602084016121b3565b600060208284031215612518578081fd5b5051919050565b60008151808452612537816020860160208601612848565b601f01601f19169290920160200192915050565b6000815161255d818560208601612848565b9290920192915050565b60008251612579818460208701612848565b9190910192915050565b600080845482600182811c91508083168061259f57607f831692505b60208084108214156125bf57634e487b7160e01b87526022600452602487fd5b8180156125d357600181146125e457612610565b60ff19861689528489019650612610565b60008b815260209020885b868110156126085781548b8201529085019083016125ef565b505084890196505b50505050505061264461263361262d83602f60f81b815260010190565b8661254b565b64173539b7b760d91b815260050190565b95945050505050565b6001600160a01b03858116825284166020820152604081018390526080606082018190526000906126809083018461251f565b9695505050505050565b6020815260006117e5602083018461251f565b60208082526021908201527f4e6f7420656e6f75676820424443732072656d61696e696e6720746f206d696e6040820152601d60fa1b606082015260800190565b60208082526026908201527f5061796d656e7453706c69747465723a206163636f756e7420686173206e6f2060408201526573686172657360d01b606082015260800190565b6020808252602b908201527f5061796d656e7453706c69747465723a206163636f756e74206973206e6f742060408201526a191d59481c185e5b595b9d60aa1b606082015260800190565b6020808252818101527f4f776e61626c653a2063616c6c6572206973206e6f7420746865206f776e6572604082015260600190565b60208082526022908201527f496e636f7272656374204554482076616c75652073656e742076616c75652069604082015261039960f51b606082015260800190565b600082198211156127f9576127f96128de565b500190565b60008261280d5761280d6128f4565b500490565b600081600019048311821515161561282c5761282c6128de565b500290565b600082821015612843576128436128de565b500390565b60005b8381101561286357818101518382015260200161284b565b838111156113ae5750506000910152565b600181811c9082168061288857607f821691505b602082108114156128a957634e487b7160e01b600052602260045260246000fd5b50919050565b60006000198214156128c3576128c36128de565b5060010190565b6000826128d9576128d96128f4565b500690565b634e487b7160e01b600052601160045260246000fd5b634e487b7160e01b600052601260045260246000fd5b634e487b7160e01b600052604160045260246000fd5b6001600160a01b03811681146111e057600080fd5b80151581146111e057600080fd5b6001600160e01b0319811681146111e057600080fdfea2646970667358221220d668772531060a1828aeb1f15f017ae67a012d42bad0dfde00d803cddfc511bc64736f6c63430008040033",
  "linkReferences": {},
  "deployedLinkReferences": {}
}