{
  "_format": "hh-sol-artifact-1",
  "contractName": "BDC",
  "sourceName": "contracts/BDC.sol",
  "abi": [
    {
      "inputs": [
        {
          "internalType": "address",
          "name": "_openSeaProxyRegistryAddress",
          "type": "address"
        },
        {
          "internalType": "uint256",
          "name": "_maxApes",
          "type": "uint256"
        },
        {
          "internalType": "uint256",
          "name": "_maxWLSaleBDCs",
          "type": "uint256"
        }
      ],
      "stateMutability": "nonpayable",
      "type": "constructor"
    },
    {
      "inputs": [],
      "name": "ApprovalCallerNotOwnerNorApproved",
      "type": "error"
    },
    {
      "inputs": [],
      "name": "ApprovalQueryForNonexistentToken",
      "type": "error"
    },
    {
      "inputs": [],
      "name": "ApprovalToCurrentOwner",
      "type": "error"
    },
    {
      "inputs": [],
      "name": "ApproveToCaller",
      "type": "error"
    },
    {
      "inputs": [],
      "name": "BalanceQueryForZeroAddress",
      "type": "error"
    },
    {
      "inputs": [],
      "name": "MintToZeroAddress",
      "type": "error"
    },
    {
      "inputs": [],
      "name": "MintZeroQuantity",
      "type": "error"
    },
    {
      "inputs": [],
      "name": "OwnerQueryForNonexistentToken",
      "type": "error"
    },
    {
      "inputs": [],
      "name": "TransferCallerNotOwnerNorApproved",
      "type": "error"
    },
    {
      "inputs": [],
      "name": "TransferFromIncorrectOwner",
      "type": "error"
    },
    {
      "inputs": [],
      "name": "TransferToNonERC721ReceiverImplementer",
      "type": "error"
    },
    {
      "inputs": [],
      "name": "TransferToZeroAddress",
      "type": "error"
    },
    {
      "inputs": [],
      "name": "URIQueryForNonexistentToken",
      "type": "error"
    },
    {
      "anonymous": false,
      "inputs": [
        {
          "indexed": true,
          "internalType": "address",
          "name": "owner",
          "type": "address"
        },
        {
          "indexed": true,
          "internalType": "address",
          "name": "approved",
          "type": "address"
        },
        {
          "indexed": true,
          "internalType": "uint256",
          "name": "tokenId",
          "type": "uint256"
        }
      ],
      "name": "Approval",
      "type": "event"
    },
    {
      "anonymous": false,
      "inputs": [
        {
          "indexed": true,
          "internalType": "address",
          "name": "owner",
          "type": "address"
        },
        {
          "indexed": true,
          "internalType": "address",
          "name": "operator",
          "type": "address"
        },
        {
          "indexed": false,
          "internalType": "bool",
          "name": "approved",
          "type": "bool"
        }
      ],
      "name": "ApprovalForAll",
      "type": "event"
    },
    {
      "anonymous": false,
      "inputs": [
        {
          "indexed": true,
          "internalType": "address",
          "name": "previousOwner",
          "type": "address"
        },
        {
          "indexed": true,
          "internalType": "address",
          "name": "newOwner",
          "type": "address"
        }
      ],
      "name": "OwnershipTransferred",
      "type": "event"
    },
    {
      "anonymous": false,
      "inputs": [
        {
          "indexed": true,
          "internalType": "address",
          "name": "from",
          "type": "address"
        },
        {
          "indexed": true,
          "internalType": "address",
          "name": "to",
          "type": "address"
        },
        {
          "indexed": true,
          "internalType": "uint256",
          "name": "tokenId",
          "type": "uint256"
        }
      ],
      "name": "Transfer",
      "type": "event"
    },
    {
      "inputs": [],
      "name": "MAX_WL_BDC_PER_WALLET",
      "outputs": [
        {
          "internalType": "uint256",
          "name": "",
          "type": "uint256"
        }
      ],
      "stateMutability": "view",
      "type": "function"
    },
    {
      "inputs": [],
      "name": "PUBLIC_SALE_PRICE",
      "outputs": [
        {
          "internalType": "uint256",
          "name": "",
          "type": "uint256"
        }
      ],
      "stateMutability": "view",
      "type": "function"
    },
    {
      "inputs": [
        {
          "internalType": "address",
          "name": "to",
          "type": "address"
        },
        {
          "internalType": "uint8",
          "name": "numberOfTokens",
          "type": "uint8"
        },
        {
          "internalType": "bytes32[]",
          "name": "merkleProof",
          "type": "bytes32[]"
        }
      ],
      "name": "WLMint",
      "outputs": [],
      "stateMutability": "payable",
      "type": "function"
    },
    {
      "inputs": [
        {
          "internalType": "address",
          "name": "",
          "type": "address"
        }
      ],
      "name": "WLMintCounts",
      "outputs": [
        {
          "internalType": "uint256",
          "name": "",
          "type": "uint256"
        }
      ],
      "stateMutability": "view",
      "type": "function"
    },
    {
      "inputs": [],
      "name": "WLSaleMerkleRoot",
      "outputs": [
        {
          "internalType": "bytes32",
          "name": "",
          "type": "bytes32"
        }
      ],
      "stateMutability": "view",
      "type": "function"
    },
    {
      "inputs": [],
      "name": "WL_SALE_PRICE",
      "outputs": [
        {
          "internalType": "uint256",
          "name": "",
          "type": "uint256"
        }
      ],
      "stateMutability": "view",
      "type": "function"
    },
    {
      "inputs": [
        {
          "internalType": "address",
          "name": "to",
          "type": "address"
        },
        {
          "internalType": "uint256",
          "name": "tokenId",
          "type": "uint256"
        }
      ],
      "name": "approve",
      "outputs": [],
      "stateMutability": "nonpayable",
      "type": "function"
    },
    {
      "inputs": [
        {
          "internalType": "address",
          "name": "owner",
          "type": "address"
        }
      ],
      "name": "balanceOf",
      "outputs": [
        {
          "internalType": "uint256",
          "name": "",
          "type": "uint256"
        }
      ],
      "stateMutability": "view",
      "type": "function"
    },
    {
      "inputs": [
        {
          "internalType": "address",
          "name": "",
          "type": "address"
        }
      ],
      "name": "claimed",
      "outputs": [
        {
          "internalType": "bool",
          "name": "",
          "type": "bool"
        }
      ],
      "stateMutability": "view",
      "type": "function"
    },
    {
      "inputs": [
        {
          "internalType": "uint256",
          "name": "tokenId",
          "type": "uint256"
        }
      ],
      "name": "getApproved",
      "outputs": [
        {
          "internalType": "address",
          "name": "",
          "type": "address"
        }
      ],
      "stateMutability": "view",
      "type": "function"
    },
    {
      "inputs": [],
      "name": "getBaseURI",
      "outputs": [
        {
          "internalType": "string",
          "name": "",
          "type": "string"
        }
      ],
      "stateMutability": "view",
      "type": "function"
    },
    {
      "inputs": [],
      "name": "getLastTokenId",
      "outputs": [
        {
          "internalType": "uint256",
          "name": "",
          "type": "uint256"
        }
      ],
      "stateMutability": "view",
      "type": "function"
    },
    {
      "inputs": [
        {
          "internalType": "address",
          "name": "owner",
          "type": "address"
        },
        {
          "internalType": "address",
          "name": "operator",
          "type": "address"
        }
      ],
      "name": "isApprovedForAll",
      "outputs": [
        {
          "internalType": "bool",
          "name": "",
          "type": "bool"
        }
      ],
      "stateMutability": "view",
      "type": "function"
    },
    {
      "inputs": [],
      "name": "maxApes",
      "outputs": [
        {
          "internalType": "uint256",
          "name": "",
          "type": "uint256"
        }
      ],
      "stateMutability": "view",
      "type": "function"
    },
    {
      "inputs": [],
      "name": "maxWLSaleBDCs",
      "outputs": [
        {
          "internalType": "uint256",
          "name": "",
          "type": "uint256"
        }
      ],
      "stateMutability": "view",
      "type": "function"
    },
    {
      "inputs": [
        {
          "internalType": "address",
          "name": "to",
          "type": "address"
        },
        {
          "internalType": "uint256",
          "name": "numberOfTokens",
          "type": "uint256"
        }
      ],
      "name": "mint",
      "outputs": [],
      "stateMutability": "payable",
      "type": "function"
    },
    {
      "inputs": [],
      "name": "name",
      "outputs": [
        {
          "internalType": "string",
          "name": "",
          "type": "string"
        }
      ],
      "stateMutability": "view",
      "type": "function"
    },
    {
      "inputs": [],
      "name": "owner",
      "outputs": [
        {
          "internalType": "address",
          "name": "",
          "type": "address"
        }
      ],
      "stateMutability": "view",
      "type": "function"
    },
    {
      "inputs": [
        {
          "internalType": "uint256",
          "name": "tokenId",
          "type": "uint256"
        }
      ],
      "name": "ownerOf",
      "outputs": [
        {
          "internalType": "address",
          "name": "",
          "type": "address"
        }
      ],
      "stateMutability": "view",
      "type": "function"
    },
    {
      "inputs": [],
      "name": "paused",
      "outputs": [
        {
          "internalType": "bool",
          "name": "",
          "type": "bool"
        }
      ],
      "stateMutability": "view",
      "type": "function"
    },
    {
      "inputs": [],
      "name": "renounceOwnership",
      "outputs": [],
      "stateMutability": "nonpayable",
      "type": "function"
    },
    {
      "inputs": [
        {
          "internalType": "address",
          "name": "from",
          "type": "address"
        },
        {
          "internalType": "address",
          "name": "to",
          "type": "address"
        },
        {
          "internalType": "uint256",
          "name": "tokenId",
          "type": "uint256"
        }
      ],
      "name": "safeTransferFrom",
      "outputs": [],
      "stateMutability": "nonpayable",
      "type": "function"
    },
    {
      "inputs": [
        {
          "internalType": "address",
          "name": "from",
          "type": "address"
        },
        {
          "internalType": "address",
          "name": "to",
          "type": "address"
        },
        {
          "internalType": "uint256",
          "name": "tokenId",
          "type": "uint256"
        },
        {
          "internalType": "bytes",
          "name": "_data",
          "type": "bytes"
        }
      ],
      "name": "safeTransferFrom",
      "outputs": [],
      "stateMutability": "nonpayable",
      "type": "function"
    },
    {
      "inputs": [
        {
          "internalType": "address",
          "name": "operator",
          "type": "address"
        },
        {
          "internalType": "bool",
          "name": "approved",
          "type": "bool"
        }
      ],
      "name": "setApprovalForAll",
      "outputs": [],
      "stateMutability": "nonpayable",
      "type": "function"
    },
    {
      "inputs": [
        {
          "internalType": "string",
          "name": "_baseURI",
          "type": "string"
        }
      ],
      "name": "setBaseURI",
      "outputs": [],
      "stateMutability": "nonpayable",
      "type": "function"
    },
    {
      "inputs": [
        {
          "internalType": "bool",
          "name": "_isOpenSeaProxyActive",
          "type": "bool"
        }
      ],
      "name": "setIsOpenSeaProxyActive",
      "outputs": [],
      "stateMutability": "nonpayable",
      "type": "function"
    },
    {
      "inputs": [
        {
          "internalType": "bool",
          "name": "_paused",
          "type": "bool"
        }
      ],
      "name": "setPaused",
      "outputs": [],
      "stateMutability": "nonpayable",
      "type": "function"
    },
    {
      "inputs": [
        {
          "internalType": "uint256",
          "name": "newMintPrice",
          "type": "uint256"
        }
      ],
      "name": "setPublicMintPrice",
      "outputs": [],
      "stateMutability": "nonpayable",
      "type": "function"
    },
    {
      "inputs": [
        {
          "internalType": "bytes32",
          "name": "merkleRoot",
          "type": "bytes32"
        }
      ],
      "name": "setWLListMerkleRoot",
      "outputs": [],
      "stateMutability": "nonpayable",
      "type": "function"
    },
    {
      "inputs": [
        {
          "internalType": "bytes4",
          "name": "interfaceId",
          "type": "bytes4"
        }
      ],
      "name": "supportsInterface",
      "outputs": [
        {
          "internalType": "bool",
          "name": "",
          "type": "bool"
        }
      ],
      "stateMutability": "view",
      "type": "function"
    },
    {
      "inputs": [],
      "name": "symbol",
      "outputs": [
        {
          "internalType": "string",
          "name": "",
          "type": "string"
        }
      ],
      "stateMutability": "view",
      "type": "function"
    },
    {
      "inputs": [
        {
          "internalType": "uint256",
          "name": "tokenId",
          "type": "uint256"
        }
      ],
      "name": "tokenURI",
      "outputs": [
        {
          "internalType": "string",
          "name": "",
          "type": "string"
        }
      ],
      "stateMutability": "view",
      "type": "function"
    },
    {
      "inputs": [],
      "name": "totalSupply",
      "outputs": [
        {
          "internalType": "uint256",
          "name": "",
          "type": "uint256"
        }
      ],
      "stateMutability": "view",
      "type": "function"
    },
    {
      "inputs": [
        {
          "internalType": "address",
          "name": "from",
          "type": "address"
        },
        {
          "internalType": "address",
          "name": "to",
          "type": "address"
        },
        {
          "internalType": "uint256",
          "name": "tokenId",
          "type": "uint256"
        }
      ],
      "name": "transferFrom",
      "outputs": [],
      "stateMutability": "nonpayable",
      "type": "function"
    },
    {
      "inputs": [
        {
          "internalType": "address",
          "name": "newOwner",
          "type": "address"
        }
      ],
      "name": "transferOwnership",
      "outputs": [],
      "stateMutability": "nonpayable",
      "type": "function"
    },
    {
      "inputs": [],
      "name": "withdraw",
      "outputs": [],
      "stateMutability": "nonpayable",
      "type": "function"
    }
  ],
  "bytecode": "0x6080604052600d805460ff19166001179055660e35fa931a0000600e556011805460ff60a01b1916600160a01b1790553480156200003c57600080fd5b50604051620021ac380380620021ac8339810160408190526200005f9162000204565b604080518082018252601081526f42616420446f677320436f6d70616e7960801b60208083019182528351808501909452600384526242444360e81b908401528151919291620000b2916002916200015e565b508051620000c89060039060208401906200015e565b50506000805550620000da336200010c565b6001600955601180546001600160a01b0319166001600160a01b039490941693909317909255600c55600f5562000284565b600880546001600160a01b038381166001600160a01b0319831681179093556040519116919082907f8be0079c531659141344cd1fd0a4f28419497f9722a3daafe3b4186f6b6457e090600090a35050565b8280546200016c9062000247565b90600052602060002090601f016020900481019282620001905760008555620001db565b82601f10620001ab57805160ff1916838001178555620001db565b82800160010185558215620001db579182015b82811115620001db578251825591602001919060010190620001be565b50620001e9929150620001ed565b5090565b5b80821115620001e95760008155600101620001ee565b60008060006060848603121562000219578283fd5b83516001600160a01b038116811462000230578384fd5b602085015160409095015190969495509392505050565b600181811c908216806200025c57607f821691505b602082108114156200027e57634e487b7160e01b600052602260045260246000fd5b50919050565b611f1880620002946000396000f3fe60806040526004361061020f5760003560e01c806370a0823111610118578063b88d4fde116100a0578063d9f8d8ea1161006f578063d9f8d8ea146105b8578063e43082f7146105cb578063e985e9c5146105eb578063f2fde38b1461060b578063f7dd2ded1461062b57600080fd5b8063b88d4fde14610528578063c87b56dd14610548578063c884ef8314610568578063d3d8f1021461059857600080fd5b806383c4c00d116100e757806383c4c00d146104ab5780638da5cb5b146104c057806395d89b41146104de578063a0c0df95146104f3578063a22cb4651461050857600080fd5b806370a082311461044b578063714c53981461046b578063715018a6146104805780637a3ff14f1461049557600080fd5b806323b872dd1161019b57806342842e0e1161016a57806342842e0e146103b157806355f804b3146103d15780635c975abb146103f15780635d82cf6e1461040b5780636352211e1461042b57600080fd5b806323b872dd14610353578063352bc9bb146103735780633ccfd60b1461038957806340c10f191461039e57600080fd5b8063081812fc116101e2578063081812fc146102aa578063095ea7b3146102e25780631300d0771461030457806316c38b3c1461031a57806318160ddd1461033a57600080fd5b806301ffc9a71461021457806306fdde031461024957806307ca97341461026b57806307e89ec014610294575b600080fd5b34801561022057600080fd5b5061023461022f366004611ac9565b610658565b60405190151581526020015b60405180910390f35b34801561025557600080fd5b5061025e6106aa565b6040516102409190611cb2565b34801561027757600080fd5b506102866611c37937e0800081565b604051908152602001610240565b3480156102a057600080fd5b50610286600e5481565b3480156102b657600080fd5b506102ca6102c5366004611ab1565b61073c565b6040516001600160a01b039091168152602001610240565b3480156102ee57600080fd5b506103026102fd3660046119d7565b610780565b005b34801561031057600080fd5b50610286600f5481565b34801561032657600080fd5b50610302610335366004611a97565b610853565b34801561034657600080fd5b5060015460005403610286565b34801561035f57600080fd5b5061030261036e3660046118e6565b610899565b34801561037f57600080fd5b50610286600c5481565b34801561039557600080fd5b506103026108a9565b6103026103ac3660046119d7565b610906565b3480156103bd57600080fd5b506103026103cc3660046118e6565b610a43565b3480156103dd57600080fd5b506103026103ec366004611b1d565b610a5e565b3480156103fd57600080fd5b50600d546102349060ff1681565b34801561041757600080fd5b50610302610426366004611ab1565b610a9b565b34801561043757600080fd5b506102ca610446366004611ab1565b610aca565b34801561045757600080fd5b50610286610466366004611892565b610ad5565b34801561047757600080fd5b5061025e610b24565b34801561048c57600080fd5b50610302610b33565b3480156104a157600080fd5b5061028660105481565b3480156104b757600080fd5b50610286610b69565b3480156104cc57600080fd5b506008546001600160a01b03166102ca565b3480156104ea57600080fd5b5061025e610b79565b3480156104ff57600080fd5b50610286600381565b34801561051457600080fd5b506103026105233660046119a3565b610b88565b34801561053457600080fd5b50610302610543366004611926565b610c1e565b34801561055457600080fd5b5061025e610563366004611ab1565b610c68565b34801561057457600080fd5b50610234610583366004611892565b60136020526000908152604090205460ff1681565b3480156105a457600080fd5b506103026105b3366004611ab1565b610ce5565b6103026105c6366004611a02565b610d14565b3480156105d757600080fd5b506103026105e6366004611a97565b610f94565b3480156105f757600080fd5b506102346106063660046118ae565b610fdc565b34801561061757600080fd5b50610302610626366004611892565b6110c8565b34801561063757600080fd5b50610286610646366004611892565b60126020526000908152604090205481565b60006301ffc9a760e01b6001600160e01b03198316148061068957506380ac58cd60e01b6001600160e01b03198316145b806106a45750635b5e139f60e01b6001600160e01b03198316145b92915050565b6060600280546106b990611e0b565b80601f01602080910402602001604051908101604052809291908181526020018280546106e590611e0b565b80156107325780601f1061070757610100808354040283529160200191610732565b820191906000526020600020905b81548152906001019060200180831161071557829003601f168201915b5050505050905090565b600061074782611163565b610764576040516333d1c03960e21b815260040160405180910390fd5b506000908152600660205260409020546001600160a01b031690565b600061078b8261118a565b9050806001600160a01b0316836001600160a01b031614156107c05760405163250fdee360e21b815260040160405180910390fd5b336001600160a01b038216146107f7576107da8133610fdc565b6107f7576040516367d9dca160e11b815260040160405180910390fd5b60008281526006602052604080822080546001600160a01b0319166001600160a01b0387811691821790925591518593918516917f8c5be1e5ebec7d5bd14f71427d1e84f3dd0314c0f7b2291e5b200ac8c7c3b92591a4505050565b6008546001600160a01b031633146108865760405162461bcd60e51b815260040161087d90611d06565b60405180910390fd5b600d805460ff1916911515919091179055565b6108a48383836111f2565b505050565b6008546001600160a01b031633146108d35760405162461bcd60e51b815260040161087d90611d06565b6040514790339082156108fc029083906000818181858888f19350505050158015610902573d6000803e3d6000fd5b5050565b600260095414156109595760405162461bcd60e51b815260206004820152601f60248201527f5265656e7472616e637947756172643a207265656e7472616e742063616c6c00604482015260640161087d565b6002600955600e54813461096d8284611da9565b1461098a5760405162461bcd60e51b815260040161087d90611d3b565b82600c5481610998600a5490565b6109a29190611d7d565b11156109c05760405162461bcd60e51b815260040161087d90611cc5565b6005841115610a235760405162461bcd60e51b815260206004820152602960248201527f4d6178204244437320796f752063616e206d696e74206174206f6e652074696d60448201526865206973206669766560b81b606482015260840161087d565b600d5460ff16610a3757610a378585611395565b50506001600955505050565b6108a483838360405180602001604052806000815250610c1e565b6008546001600160a01b03163314610a885760405162461bcd60e51b815260040161087d90611d06565b805161090290600b90602084019061176e565b6008546001600160a01b03163314610ac55760405162461bcd60e51b815260040161087d90611d06565b600e55565b60006106a48261118a565b60006001600160a01b038216610afe576040516323d3ad8160e21b815260040160405180910390fd5b506001600160a01b031660009081526005602052604090205467ffffffffffffffff1690565b6060600b80546106b990611e0b565b6008546001600160a01b03163314610b5d5760405162461bcd60e51b815260040161087d90611d06565b610b676000611473565b565b6000610b74600a5490565b905090565b6060600380546106b990611e0b565b6001600160a01b038216331415610bb25760405163b06307db60e01b815260040160405180910390fd5b3360008181526007602090815260408083206001600160a01b03871680855290835292819020805460ff191686151590811790915590519081529192917f17307eab39ab6107e8899845ad3d59bd9653f200f220920489ca2b5937696c31910160405180910390a35050565b610c298484846111f2565b6001600160a01b0383163b15610c6257610c45848484846114c5565b610c62576040516368d2bf6b60e11b815260040160405180910390fd5b50505050565b6060610c7382611163565b610cb35760405162461bcd60e51b81526020600482015260116024820152702737b732bc34b9ba32b73a103a37b5b2b760791b604482015260640161087d565b600b610cbe836115bc565b604051602001610ccf929190611bab565b6040516020818303038152906040529050919050565b6008546001600160a01b03163314610d0f5760405162461bcd60e51b815260040161087d90611d06565b601055565b60026009541415610d675760405162461bcd60e51b815260206004820152601f60248201527f5265656e7472616e637947756172643a207265656e7472616e742063616c6c00604482015260640161087d565b6002600955600c5460ff84169081610d7e600a5490565b610d889190611d7d565b1115610da65760405162461bcd60e51b815260040161087d90611cc5565b6611c37937e0800060ff851634610dbd8284611da9565b14610dda5760405162461bcd60e51b815260040161087d90611d3b565b8484601054610e51838380806020026020016040519081016040528093929190818152602001838360200280828437600092019190915250506040516bffffffffffffffffffffffff193360601b1660208201528592506034019050604051602081830303815290604052805190602001206116d6565b610e9d5760405162461bcd60e51b815260206004820152601e60248201527f4164647265737320646f6573206e6f7420657869737420696e206c6973740000604482015260640161087d565b336000908152601260205260409020546003610ebc60ff8c1683611d7d565b1115610f165760405162461bcd60e51b8152602060048201526024808201527f4d6178204244437320746f206d696e7420696e20574c2073616c6520697320746044820152636872656560e01b606482015260840161087d565b600f548a60ff16610f26600a5490565b610f309190611d7d565b1115610f4e5760405162461bcd60e51b815260040161087d90611cc5565b610f5b60ff8b1682611d7d565b33600090815260126020526040902055600d5460ff16610f8257610f828b8b60ff16611395565b50506001600955505050505050505050565b6008546001600160a01b03163314610fbe5760405162461bcd60e51b815260040161087d90611d06565b60118054911515600160a01b0260ff60a01b19909216919091179055565b6011546000906001600160a01b03811690600160a01b900460ff168015611087575060405163c455279160e01b81526001600160a01b038581166004830152808516919083169063c45527919060240160206040518083038186803b15801561104457600080fd5b505afa158015611058573d6000803e3d6000fd5b505050506040513d601f19601f8201168201806040525081019061107c9190611b01565b6001600160a01b0316145b156110965760019150506106a4565b6001600160a01b0380851660009081526007602090815260408083209387168352929052205460ff165b949350505050565b6008546001600160a01b031633146110f25760405162461bcd60e51b815260040161087d90611d06565b6001600160a01b0381166111575760405162461bcd60e51b815260206004820152602660248201527f4f776e61626c653a206e6577206f776e657220697320746865207a65726f206160448201526564647265737360d01b606482015260840161087d565b61116081611473565b50565b60008054821080156106a4575050600090815260046020526040902054600160e01b161590565b6000816000548110156111d957600081815260046020526040902054600160e01b81166111d7575b806111d05750600019016000818152600460205260409020546111b2565b9392505050565b505b604051636f96cda160e11b815260040160405180910390fd5b60006111fd8261118a565b9050836001600160a01b0316816001600160a01b0316146112305760405162a1148160e81b815260040160405180910390fd5b6000336001600160a01b038616148061124e575061124e8533610fdc565b8061126957503361125e8461073c565b6001600160a01b0316145b90508061128957604051632ce44b5f60e11b815260040160405180910390fd5b6001600160a01b0384166112b057604051633a954ecd60e21b815260040160405180910390fd5b600083815260066020908152604080832080546001600160a01b03191690556001600160a01b038881168452600583528184208054600019019055871683528083208054600101905585835260049091529020600160e11b4260a01b86178117909155821661134d576001830160008181526004602052604090205461134b57600054811461134b5760008181526004602052604090208390555b505b82846001600160a01b0316866001600160a01b03167fddf252ad1be2c89b69c2b068fc378daa952ba7f163c4a11628f55a4df523b3ef60405160405180910390a45050505050565b6000546001600160a01b0383166113be57604051622e076360e81b815260040160405180910390fd5b816113dc5760405163b562e8dd60e01b815260040160405180910390fd5b6001600160a01b03831660009081526005602090815260408083208054680100000000000000018702019055838352600490915290204260a01b84176001841460e11b179055808083015b6040516001830192906001600160a01b038716906000907fddf252ad1be2c89b69c2b068fc378daa952ba7f163c4a11628f55a4df523b3ef908290a48082106114275750600055505050565b600880546001600160a01b038381166001600160a01b0319831681179093556040519116919082907f8be0079c531659141344cd1fd0a4f28419497f9722a3daafe3b4186f6b6457e090600090a35050565b604051630a85bd0160e11b81526000906001600160a01b0385169063150b7a02906114fa903390899088908890600401611c75565b602060405180830381600087803b15801561151457600080fd5b505af1925050508015611544575060408051601f3d908101601f1916820190925261154191810190611ae5565b60015b61159f573d808015611572576040519150601f19603f3d011682016040523d82523d6000602084013e611577565b606091505b508051611597576040516368d2bf6b60e11b815260040160405180910390fd5b805181602001fd5b6001600160e01b031916630a85bd0160e11b149050949350505050565b6060816115e05750506040805180820190915260018152600360fc1b602082015290565b8160005b811561160a57806115f481611e46565b91506116039050600a83611d95565b91506115e4565b60008167ffffffffffffffff81111561163357634e487b7160e01b600052604160045260246000fd5b6040519080825280601f01601f19166020018201604052801561165d576020820181803683370190505b5090505b84156110c057611672600183611dc8565b915061167f600a86611e61565b61168a906030611d7d565b60f81b8183815181106116ad57634e487b7160e01b600052603260045260246000fd5b60200101906001600160f81b031916908160001a9053506116cf600a86611d95565b9450611661565b6000826116e385846116ec565b14949350505050565b600081815b845181101561176657600085828151811061171c57634e487b7160e01b600052603260045260246000fd5b602002602001015190508083116117425760008381526020829052604090209250611753565b600081815260208490526040902092505b508061175e81611e46565b9150506116f1565b509392505050565b82805461177a90611e0b565b90600052602060002090601f01602090048101928261179c57600085556117e2565b82601f106117b557805160ff19168380011785556117e2565b828001600101855582156117e2579182015b828111156117e25782518255916020019190600101906117c7565b506117ee9291506117f2565b5090565b5b808211156117ee57600081556001016117f3565b600067ffffffffffffffff8084111561182257611822611ea1565b604051601f8501601f19908116603f0116810190828211818310171561184a5761184a611ea1565b8160405280935085815286868601111561186357600080fd5b858560208301376000602087830101525050509392505050565b8035801515811461188d57600080fd5b919050565b6000602082840312156118a3578081fd5b81356111d081611eb7565b600080604083850312156118c0578081fd5b82356118cb81611eb7565b915060208301356118db81611eb7565b809150509250929050565b6000806000606084860312156118fa578081fd5b833561190581611eb7565b9250602084013561191581611eb7565b929592945050506040919091013590565b6000806000806080858703121561193b578081fd5b843561194681611eb7565b9350602085013561195681611eb7565b925060408501359150606085013567ffffffffffffffff811115611978578182fd5b8501601f81018713611988578182fd5b61199787823560208401611807565b91505092959194509250565b600080604083850312156119b5578182fd5b82356119c081611eb7565b91506119ce6020840161187d565b90509250929050565b600080604083850312156119e9578182fd5b82356119f481611eb7565b946020939093013593505050565b60008060008060608587031215611a17578384fd5b8435611a2281611eb7565b9350602085013560ff81168114611a37578384fd5b9250604085013567ffffffffffffffff80821115611a53578384fd5b818701915087601f830112611a66578384fd5b813581811115611a74578485fd5b8860208260051b8501011115611a88578485fd5b95989497505060200194505050565b600060208284031215611aa8578081fd5b6111d08261187d565b600060208284031215611ac2578081fd5b5035919050565b600060208284031215611ada578081fd5b81356111d081611ecc565b600060208284031215611af6578081fd5b81516111d081611ecc565b600060208284031215611b12578081fd5b81516111d081611eb7565b600060208284031215611b2e578081fd5b813567ffffffffffffffff811115611b44578182fd5b8201601f81018413611b54578182fd5b6110c084823560208401611807565b60008151808452611b7b816020860160208601611ddf565b601f01601f19169290920160200192915050565b60008151611ba1818560208601611ddf565b9290920192915050565b600080845482600182811c915080831680611bc757607f831692505b6020808410821415611be757634e487b7160e01b87526022600452602487fd5b818015611bfb5760018114611c0c57611c38565b60ff19861689528489019650611c38565b60008b815260209020885b86811015611c305781548b820152908501908301611c17565b505084890196505b505050505050611c6c611c5b611c5583602f60f81b815260010190565b86611b8f565b64173539b7b760d91b815260050190565b95945050505050565b6001600160a01b0385811682528416602082015260408101839052608060608201819052600090611ca890830184611b63565b9695505050505050565b6020815260006111d06020830184611b63565b60208082526021908201527f4e6f7420656e6f75676820424443732072656d61696e696e6720746f206d696e6040820152601d60fa1b606082015260800190565b6020808252818101527f4f776e61626c653a2063616c6c6572206973206e6f7420746865206f776e6572604082015260600190565b60208082526022908201527f496e636f7272656374204554482076616c75652073656e742076616c75652069604082015261039960f51b606082015260800190565b60008219821115611d9057611d90611e75565b500190565b600082611da457611da4611e8b565b500490565b6000816000190483118215151615611dc357611dc3611e75565b500290565b600082821015611dda57611dda611e75565b500390565b60005b83811015611dfa578181015183820152602001611de2565b83811115610c625750506000910152565b600181811c90821680611e1f57607f821691505b60208210811415611e4057634e487b7160e01b600052602260045260246000fd5b50919050565b6000600019821415611e5a57611e5a611e75565b5060010190565b600082611e7057611e70611e8b565b500690565b634e487b7160e01b600052601160045260246000fd5b634e487b7160e01b600052601260045260246000fd5b634e487b7160e01b600052604160045260246000fd5b6001600160a01b038116811461116057600080fd5b6001600160e01b03198116811461116057600080fdfea2646970667358221220833dfd86fbaadeb88a482e75b96751faa056602a342a89db90b60a2c913639c364736f6c63430008040033",
  "linkReferences": {},
  "deployedLinkReferences": {}
}